:100000000C9465000C948D000C948D000C948D0064
:100010000C948D000C948D000C948D000C948D002C
:100020000C948D000C948D000C94B3120C948D00E4
:100030000C948D000C9436120C948D000C948D0051
:100040000C9494110C948D000C9404120C94DE11F9
:100050000C948D000C948D000C948D000C948D00EC
:100060000C948D000C948D0000000008000201002B
:100070000003040700000000000000000000000072
:10008000250028002B0000000000240027002A0083
:10009000040404040404040402020202020203032E
:1000A0000303030301020408102040800102040836
:1000B00010200102040810207C3C3E5E2B3D3F2FA7
:1000C0005B5D3B2C2A225C002F1311241FBECFEF57
:1000D000D8E0DEBFCDBF11E0A0E0B1E0E4EFFEE28A
:1000E00002C005900D92AE3DB107D9F725E0AEED07
:1000F000B1E001C01D92AA38B207E1F710E0C5E6F1
:10010000D0E004C02197FE010E942216C436D10718
:10011000C9F70E9486130C9478170C940000E091A4
:100120003905F0913A05309721F081E095819111E0
:1001300001C080E0089590E0FC01EC55FF4F249150
:1001400080579F4FFC018491882399F090E0880F9D
:10015000991FFC01EA57FF4FA591B491FC01E458A7
:10016000FF4F859194918FB7F894EC91E22BEC932B
:100170008FBF089590E0FC01E859FF4F2491FC01E6
:10018000EC55FF4F3491FC01E057FF4FE491EE2313
:10019000C9F0222339F0233001F1A8F4213019F1FC
:1001A000223029F1F0E0EE0FFF1FE458FF4FA59138
:1001B000B4918FB7F894EC91611126C030953E232D
:1001C0003C938FBF08952730A9F02830C9F0243020
:1001D00049F7809180008F7D03C0809180008F77E8
:1001E00080938000DFCF84B58F7784BDDBCF84B56B
:1001F0008F7DFBCF8091B0008F778093B000D2CFFE
:100200008091B0008F7DF9CF3E2BDACF2FB7F894D5
:100210006091ED017091EE018091EF019091F001FC
:100220002FBF0895AF92BF92CF92DF92EF92FF92CD
:100230000F931F93CF93DF936C017B018B01040F0E
:10024000151FEB015E01AE18BF08C017D10759F0AA
:100250006991D601ED91FC910190F081E02DC601EC
:100260000995892B79F7C501DF91CF911F910F91E6
:10027000FF90EF90DF90CF90BF90AF900895FC017A
:10028000538D448D252F30E0842F90E0821B930BFB
:10029000541710F0CF96089501970895FC01918DA1
:1002A000828D981761F0A28DAE0FBF2FB11D5D96A4
:1002B0008C91928D9F5F9F73928F90E008958FEF46
:1002C0009FEF0895FC01918D828D981731F0828DFA
:1002D000E80FF11D858D90E008958FEF9FEF089551
:1002E000FC01918D228D892F90E0805C9F4F821BB5
:1002F00091098F739927089583E894E00E94700113
:1003000021E0892B09F420E0822F089580E090E01D
:10031000892B29F00E947C0181110C940000089522
:10032000FC01A48DA80FB92FB11DA35ABF4F2C916A
:10033000848D90E001968F739927848FA689B78961
:100340002C93A089B1898C91837080648C93938D58
:10035000848D981306C00288F389E02D80818F7DFB
:1003600080830895EF92FF920F931F93CF93DF93B3
:10037000EC0181E0888F9B8D8C8D98131AC0E889E1
:10038000F989808185FF15C09FB7F894EE89FF89B0
:100390006083E889F98980818370806480839FBF4E
:1003A00081E090E0DF91CF911F910F91FF90EF904E
:1003B0000895F62E0B8D10E00F5F1F4F0F7311275E
:1003C000E02E8C8D8E110CC00FB607FCFACFE88999
:1003D000F989808185FFF5CFCE010E949001F1CF90
:1003E000EB8DEC0FFD2FF11DE35AFF4FF0829FB70D
:1003F000F8940B8FEA89FB8980818062CFCFCF93FD
:10040000DF93EC01888D8823B9F0AA89BB89E8893C
:10041000F9898C9185FD03C0808186FD0DC00FB6E2
:1004200007FCF7CF8C9185FFF2CF808185FFEDCF60
:10043000CE010E949001E9CFDF91CF9108958FB74F
:10044000F8948091E0018FBF089561E0FC01848100
:100450000E94BA008091DF0181111092DF0108959E
:100460008EBD00000DB407FEFDCF8EB508958FEF51
:100470000C9430020F931F93CF93DF93EC010E94F3
:1004800006018B010E9437028F3F69F00E9406012E
:10049000601B710B6C177D07A8F380E0DF91CF9193
:1004A0001F910F91089581E0F9CF8CBD9DBD0895F6
:1004B000CF93DF93EC018091DF01811109C081E0CE
:1004C0008093DF0180913B0590913C050E9455028D
:1004D00060E08C81DF91CF910C94BA008F929F9253
:1004E000AF92BF92FF920F931F93CF93DF93EC01D4
:1004F000F62E49015A018E81882389F08F819885D3
:100500009C012F5F3F4F38872F838230924018F431
:100510000E943702F3CFCE010E9425021E82CE0137
:100520000E9458028CE291E00E943A028F2D806472
:100530000E94300208E110E0D501C401002E04C081
:10054000B695A795979587950A94D2F70E943002A1
:1005500008501109083F8FEF180771F785E9FF2050
:1005600021F028E087E8F2128FEF0E94300210E0BD
:100570000E9437028A8787FF04C01F3F11F01F5F68
:10058000F7CFDF91CF911F910F91FF90BF90AF9068
:100590009F908F900895AF92BF92CF92DF92EF928B
:1005A000FF920F931F93CF93DF93EC016901C80172
:1005B000820F931F8130924050F58E81882379F00D
:1005C00088819981AA81BB8184179507A607B707FF
:1005D00031F48F819885C816D90608F042C0488347
:1005E00059836A837B838B85833039F089E0440F9C
:1005F000551F661F771F8A95D1F79A01AB0161E1FC
:10060000CE010E946E02882389F083E08D83CE01A3
:100610000E94250280E0DF91CF911F910F91FF9002
:10062000EF90DF90CF90BF90AF9008950E940601A9
:100630005B010E9437028A878F3F69F40E9406019E
:100640006A197B096D327140A0F38FE08D83CE0172
:100650000E942502DCCF8E3F89F418861F8281E03C
:100660008E838F8198858C159D0550F40E943702EA
:100670008F819885019698878F83F3CF8DE0E6CFA1
:100680006701E00EF11E0E943702F60181936F01AF
:10069000EE15FF05C1F78F819885080F191F188780
:1006A0000F838985882319F001151240A0F08E81EF
:1006B000882389F08F8198859C012F5F3F4F388771
:1006C0002F838230924018F40E943702F3CFCE017C
:1006D0000E9425021E8281E09ECFCF92DF92EF9290
:1006E000FF920F93CF93DF93EC01690182E14115F3
:1006F00051056105710599F08B85833039F089E0EA
:10070000440F551F661F771F8A95D1F79A01AB01D9
:1007100068E1CE010E946E02882319F084E08D8387
:100720002DC08EEF0E94300276018EEFD81AF701AD
:1007300081917F010E943002EC14FD04C1F78FEF1C
:100740000E9430028FEF0E9430020E9437028A8797
:100750008F71853071F4011116C0CE010E942502FF
:1007600081E0DF91CF910F91FF90EF90DF90CF90DC
:10077000089581E18D83CE010E942502CE010E9461
:10078000250280E0EECF88E592E00E943A028111D6
:1007900002C085E1C4CF20E030E0A9016DE0CE01C8
:1007A0000E946E02882311F084E1B9CF0E943702C3
:1007B0008111FACFD2CF0F934091E1015091E20124
:1007C0006091E3017091E4014115510561057105E6
:1007D00099F0082F2BE732E08091F1019091F2011E
:1007E0000E946D03882349F01092E1011092E2010A
:1007F0001092E3011092E40181E00F9108950F93AC
:10080000CF93C82F80917A02811105C0C1E08C2F4F
:10081000CF910F910895409103015091040160918F
:100820000501709106010C2F2BE732E08091F10158
:100830009091F2010E946D03811102C0C0E0E7CFE8
:10084000CC2321F381E00E94DB038823B9F31092CB
:100850007A02DDCF8F929F92AF92BF92EF92FF927A
:100860000F931F93CF934B015C01C42F8091030121
:1008700090910401A0910501B09106018815990598
:10088000AA05BB0551F181E00E94FF0381110BC055
:1008900080E0CF911F910F91FF90EF90BF90AF90AC
:1008A0009F908F9008958BE7E82E82E0F82E00E06D
:1008B00012E030E020E0B501A4018091F1019091B7
:1008C000F2010E94CB02882319F3809203019092D7
:1008D0000401A0920501B092060140917A024C2BCE
:1008E00040937A0281E0D5CF8F929F92AF92BF92D0
:1008F000CF92DF92EF92FF92CF932DE335E03093CA
:10090000F2012093F101882309F46DC040E060E01A
:1009100070E0CB010E942A0481110BC080E0CF91CE
:10092000FF90EF90DF90CF90BF90AF909F908F900F
:100930000895809139048F7789F7809145049091CB
:100940004604A0914704B091480484369105A1055E
:10095000B10520F3C0904104D0904204E0904304DC
:10096000F0904404C114D104E104F104B9F240E070
:10097000C701B6010E942A04882381F28091860271
:10098000909187028115924049F6A0918B02AA238B
:1009900029F26091890270918A026115710509F44A
:1009A000BDCF20918802222309F4B8CFA0935B0524
:1009B00020934D0590E080E030E0E1E0F0E0C82FCA
:1009C000AF01082E02C0440F551F0A94E2F7241706
:1009D000350769F041E0480F01968930910579F7B4
:1009E000409356059BCFC12CD12C7601C0CF80936C
:1009F0005605209191023091920250E040E021157D
:100A0000310541F420919F023091A0024091A10252
:100A10005091A20220934E0530934F05409350050C
:100A20005093510546015701860E971EA11CB11C1B
:100A300080925C0590925D05A0925E05B0925F0584
:100A4000E0918C02F0918D02F0936205E0936105D4
:100A5000B0E00E94F515DC01CB01880D991DAA1D9F
:100A6000BB1D8093630590936405A0936505B093C7
:100A7000660525E0EE0FFF1F2A95E1F7E150FE4FD6
:100A8000EF2FFF27E6958E0F9F1FA11DB11D8093AD
:100A9000570590935805A0935905B0935A05809037
:100AA0008E0290908F02B12CA12C8114910441F4FC
:100AB00080909B0290909C02A0909D02B0909E021C
:100AC000C81AD90AEA0AFB0AC80CD91CEA1CFB1C82
:100AD00004C0F694E794D794C794CA95D2F7C0920D
:100AE0005205D0925305E0925405F092550585EFDA
:100AF000C8168FE0D806E104F10428F48CE0809356
:100B0000600581E00CCF80E125EFC2162FEFD20601
:100B1000E104F104A0F38091A7029091A802A091B2
:100B2000A902B091AA028093630590936405A093F3
:100B30006505B093660580E2E2CF4F925F926F92B7
:100B40007F928F929F92AF92BF92CF92DF92EF925D
:100B5000FF920F931F93CF93DF93EC014230510527
:100B60006105710590F480E0DF91CF911F910F91A5
:100B7000FF90EF90DF90CF90BF90AF909F908F90BD
:100B80007F906F905F904F90089589859A85AB858F
:100B9000BC850196A11DB11D84179507A607B7074F
:100BA00010F3CB88DC88ED88FE888F89803109F0CE
:100BB00042C0BB27A72F962F852F480159012A0134
:100BC0003B01C80ED91EEA1EFB1E809103019091C5
:100BD0000401A0910501B0910601C816D906EA06E4
:100BE000FB0699F58F898031C1F5B301A201552724
:100BF00066277727440F551F45585D4FFA019182AC
:100C0000808280917A02816080937A028A89823020
:100C100080F08D819E81AF81B8858C0D9D1DAE1DAC
:100C2000BF1D8093E1019093E201A093E301B09393
:100C3000E40181E099CFDB01CA01E7E0B695A79511
:100C400097958795EA95D1F7B8CF40E0C701B601EF
:100C50000E942A048111C6CF86CFB301A2014F772B
:100C6000552766277727440F551F440F551F4558B2
:100C70005D4FFA0180829182A282B382C2CF8F92AD
:100C80009F92AF92BF92CF92DF92EF92FF920F931B
:100C90001F93CF93DF93FC0181859285A385B48553
:100CA0000196A11DB11D84179507A607B70770F41B
:100CB00080E0DF91CF911F910F91FF90EF90DF9037
:100CC000CF90BF90AF909F908F9008958388948825
:100CD000A588B6888789803189F5BB27A72F962FED
:100CE000852FE9016A017B018F01BC01CD01680DEF
:100CF000791D8A1D9B1D8090030190900401A09096
:100D00000501B090060186169706A806B90601F5FA
:100D1000F8018789803111F5DD24EE24FF24F601E6
:100D2000EE0FFF1FE558FD4F80819181B0E0A0E0FC
:100D300088839983AA83BB8381E0BBCFDB01CA018F
:100D4000C7E0B695A79597958795CA95D1F7C9CF6E
:100D500040E00E942A048111DBCFAACFE894C7F8B3
:100D6000DD24EE24FF24F601EE0FFF1FEE0FFF1F20
:100D7000E558FD4F80819181A281B381BF70D8CFAA
:100D80004F925F926F927F92AF92BF92CF92DF921B
:100D9000EF92FF920F931F93CF93DF9300D000D079
:100DA000CDB7DEB78C0149835A836B837C835901AD
:100DB000C12CD12C7601412C82E0582E612C712C53
:100DC00049815A816B817C819E012F5F3F4FC80111
:100DD0000E943F06882339F1F8018585A30192011D
:100DE00004C0220F331F441F551F8A95D2F7DA0122
:100DF000C901C80ED91EEA1EFB1E49815A816B81AA
:100E00007C818789803111F188EF9FEFAFEFBFE0E0
:100E1000481759076A077B0798F2F501C082D1820B
:100E2000E282F38281E00F900F900F900F90DF919C
:100E3000CF911F910F91FF90EF90DF90CF90BF90D7
:100E4000AF907F906F905F904F90089588EF9FEFE5
:100E5000A0E0B0E0DDCFCF93DF93FC01258122231A
:100E600021F080E0DF91CF910895EC018091600541
:100E7000803159F582E08583178A108E118E128E8B
:100E80008091610590916205B0E0A0E025E0880FB7
:100E9000991FAA1FBB1F2A95D1F7838B948BA58B13
:100EA000B68B89E495E09C8F8B8F81E08C831E82CA
:100EB0001F82188619861A861B861C861D861E862A
:100EC0001F86188A198A1A8ACDCF803251F683E09C
:100ED000858340916305509164056091650570912B
:100EE0006605478B508F618F728F9F012D5E3F4F3C
:100EF00089E495E00E94C0068111D3CFB2CF8F92D2
:100F00009F92AF92BF92CF92DF92EF92FF920F9398
:100F10001F93CF93DF93EC018D8181110EC080E090
:100F2000DF91CF911F910F91FF90EF90DF90CF90C5
:100F3000BF90AF909F908F9008950B891C892D8949
:100F40003E89041715072607370748F34A015B0156
:100F5000823031F48A869B86AC86BD8681E0E0CF04
:100F600081149104A104B10449F41E821F821886E1
:100F700019861A861B861C861D86F0CF0A851B855E
:100F80002C853D85EB8DFC8D858590E00996B9011A
:100F9000A8014150510961097109082E04C07695D4
:100FA0006795579547950A94D2F775016401E1E07A
:100FB000CE1AD108E108F10804C0F694E794D7945A
:100FC000C7948A95D2F7C416D506E606F70620F030
:100FD000012B022B032B11F58F89988DA98DBA8DCA
:100FE0008E839F83A887B9878E010A5F1F4FC11424
:100FF000D104E104F10409F4ADCF4E815F8168852D
:10100000798598018B8D9C8D0E943F0691E0C91ACD
:10101000D108E108F1088111EACF81CFC41AD50ABD
:10102000E60AF70AE1CF2091390530913A052115FA
:10103000310541F0AB01BC01C9010E947F0791E07D
:10104000811101C090E0892F08953F924F925F92E5
:101050006F927F928F929F92AF92BF92CF92DF92C8
:10106000EF92FF920F931F93CF93DF93CDB7DEB72D
:101070002C970FB6F894DEBF0FBECDBF5C01DC012C
:101080005B968D909C905C9716964D905D906D90C0
:101090007C901997411451046104710409F468C0EB
:1010A000BFEF4B1A5B0A6B0A7B0A312CF401818576
:1010B0009285A385B4859C01AD012F5F3F4F4F4FB3
:1010C0005F4F29873A874B875C87730162011D82D6
:1010D0001E821F821886F40181859285A385B485BE
:1010E0002D813E814F815885281739074A075B07B4
:1010F00008F056C089859A85AB85BC858C159D0501
:10110000AE05BF0550F482E0C82ED12CE12CF12CA5
:1011100092E0492E512C612C712C9E012F5F3F4F84
:10112000B701A601C4010E943F068823C9F1898145
:101130009A81AB81BC81892B8A2B8B2B09F12601EB
:1011400037019FEF491A590A690A790A2D813E81B0
:101150004F8158852F5F3F4F4F4F5F4F2D833E8309
:101160004F8358873FEFC31AD30AE30AF30AB3CF7A
:10117000F40140805180628073803324339496CF91
:10118000C414D504E604F70409F70FEF1FEF2FEF9F
:101190003FE0B701A601C4010E949D05811119C05D
:1011A00080E02C960FB6F894DEBF0FBECDBFDF9166
:1011B000CF911F910F91FF90EF90DF90CF90BF9054
:1011C000AF909F908F907F906F905F904F903F90E7
:1011D0000895D50116964D915D916D917C91199769
:1011E000411551056105710539F097018601C4016A
:1011F0000E949D058823A1F2D5011696CD92DD921D
:10120000ED92FC921997332051F0D701C601019657
:10121000A11DB11DF40180839183A283B383F501E5
:101220008789908DA18DB28D892B8A2B8B2B39F4D8
:101230008481C78AD08EE18EF28E80688483F50126
:1012400084818062848381E0ACCF2F923F924F9261
:101250005F926F927F928F929F92AF92BF92CF9246
:10126000DF92EF92FF920F931F93CF93DF93EC01E6
:101270005B012A018D81811115C08FEF9FEFDF91F6
:10128000CF911F910F91FF90EF90DF90CF90BF9083
:10129000AF909F908F907F906F905F904F903F9016
:1012A0002F9008958C8180FFE8CF0B891C892D89B0
:1012B0003E894A855B856C857D85C201B0E0A0E0F2
:1012C00068017901C41AD50AE60AF70AC816D906D0
:1012D000EA06FB0618F42801441A550A42011E01C9
:1012E00026E0220E311C8114910409F4B3C04A8512
:1012F0005B856C857D856A0181E0D8228B8D9C8D14
:101300008A019B01E9E03695279517950795EA959F
:10131000D1F7ED81E230E1F5FC01628D738D848DB2
:10132000958D600F711F821F931F612C22E0722E1A
:101330006C187D088614970408F434012C8126FD6E
:1013400004C06114F2E07F0671F400910301109172
:10135000040120910501309106010617170728079F
:10136000390709F053C040E00E942A04882309F499
:1013700084CFC60185589D4FD5019C01260D371D90
:10138000FC012E173F0709F460C041914D93F9CF3E
:10139000FC0174807A947022C114D10471F471102C
:1013A0000CC0452B462B472B39F58F89988DA98D7D
:1013B000BA8D8E839F83A887B987EB8DFC8D6E8154
:1013C0007F818885998562507109810991092585F8
:1013D00004C0660F771F881F991F2A95D2F70685CC
:1013E000178520893189600F711F821F931F670D38
:1013F000711D811D911D99CF4E815F816885798511
:1014000091010E943F068111D8CF37CF750183012A
:101410009601AB01BC018091F1019091F2010E9413
:10142000CB02882309F429CFA60CB71C8A859B859B
:10143000AC85BD85860D971DA11DB11D8A879B8733
:10144000AC87BD87861897084ECF281B390BA20E94
:10145000B31EECCFC20113CF1F93CF93DF93FC01D8
:1014600025812223D1F1162FEC01848187FF2AC028
:10147000668577858089918941E00E942A048823C6
:1014800061F1EA8980E2E89FF0011124E558FD4FFF
:10149000309719F18D81823040F48B899C89AD8918
:1014A000BE89848F958FA68FB78F8F89988D938FE4
:1014B000828F8F89988DA98DBA8DB58BA48B8C81E5
:1014C0008F778C83111103C08C818F7E8C83812F49
:1014D000DF91CF911F910C94FF0380E0DF91CF91BA
:1014E0001F910895FF920F931F93CF93DF93EC0109
:1014F0008D81813041F090E080E0DF91CF911F91AC
:101500000F91FF9008958C8181FFF5CF82FD1BC064
:101510000091F1011091F201C8010E9458020E944D
:101520003702F82EC8010E9425028FEFF812E3CF90
:101530008C8185FF1BC060E0CE010E942C0A8C814B
:101540008F7D8C83D8CF4B895C896D897E898A8514
:101550009B85AC85BD8584179507A607B707C1F2A3
:10156000CE010E947F078111D3CFC5CF4091E10109
:101570005091E2016091E3017091E401452B462B0B
:10158000472B21F080E00E94DB03B5CF80618C8384
:101590002A853B85317080E092E0821B930BADCFB2
:1015A000CF93DF93EC0161E00E942C0A882311F0B5
:1015B0001D8281E0DF91CF9108952F923F924F924B
:1015C0005F926F927F928F929F92AF92BF92CF92D3
:1015D000DF92EF92FF920F931F93CF93DF9300D090
:1015E00000D01F92CDB7DEB77C015B01342E5D8346
:1015F000DC0115968C911597813009F0CEC01496B8
:101600002C9021FECAC022FCB4C0C32CDD802294E1
:101610007FE027222094B22DB1702B2ED7011A968D
:101620004D915D916D917C911D97C114D10409F488
:1016300028C15B968D919C915C97FC0174807A9493
:101640008A019B0169E036952795179507956A955C
:10165000D1F770228A011170711020C00115110597
:10166000E9F416964D915D916D917C911997411514
:1016700051056105710509F099C057968D919D91AD
:101680000D90BC91A02D0097A105B10509F0B0C047
:10169000C7010E942508882309F47FC080E092E0FA
:1016A000801B910B46018C159D0508F44C01D70158
:1016B0005B964D915C915C9716968D919D910D90E6
:1016C000BC91A02D0297A109B109FA01258504C09A
:1016D000880F991FAA1FBB1F2A95D2F746855785E9
:1016E00060897189840F951FA61FB71F9C01AD01EA
:1016F000270D311D411D511D29013A01811432E090
:10170000930609F07BC08091030190910401A091A0
:101710000501B091060184159505A605B70559F494
:101720008FEF9FEFDC018093030190930401A0935E
:101730000501B0930601022D9501B301A20180912C
:10174000F1019091F2010E946D03882331F19EEF27
:10175000B91AC818D908F70182859385A485B5857B
:10176000880D991DA11DB11D82879387A487B58718
:1017700055CFF70143895489658976898285938598
:10178000A485B585481759076A077B0709F43DCF3B
:10179000C7010E947F07811138CF81E090E0D70117
:1017A00013969C938E93129780E007C09E012F5F43
:1017B0003F4F0E943F06811102C090E079C08981AD
:1017C0009A81AB81BC81F701238D348DF901278982
:1017D00048EF5FEF60E070E0203121F048EF5FEF0D
:1017E0006FEF7FE084179507A607B70708F050CF83
:1017F000F70186839783A087B18750CF0115110524
:1018000099F5D7011A964D915D916D917C911D9737
:1018100053968D919D910D90BC91A02D481759071D
:101820006A077B0708F181E00E94FF03882309F41F
:10183000B4CF40920301509204016092050170926E
:10184000060180917A02816080937A02C8018558EE
:101850009D4FD5019C01280D391DFC012E173F0716
:1018600059F04D914193FACF41E0C301B2010E947A
:101870002A048111EBCF91CF281B390BA20EB31E86
:1018800068CFF70183899489A589B689841795075C
:10189000A607B70738F48481438B548B658B768B0E
:1018A00080688483F701848183FD1AC0832D9D8124
:1018B0000F900F900F900F900F90DF91CF911F918D
:1018C0000F91FF90EF90DF90CF90BF90AF909F90DF
:1018D0008F907F906F905F904F903F902F900895E2
:1018E00061E0C7010E942C0A882309F456CFDECF9D
:1018F000CF93DF931F92CDB7DEB7698341E050E00D
:10190000BE016F5F7F4F0E94DD0A0F90DF91CF9184
:101910000895FC01DB0112968D919C91139793839E
:10192000828389E391E09183808314968C9114974C
:10193000848315968C911597858316964D915D91AC
:101940006D917C91199746835783608771871A96AA
:101950004D915D916D917C911D974287538764876E
:1019600075871E964D915D916D917C91519746873B
:101970005787608B718B52968C915297828B5396BE
:101980004D915D916D917C915697438B548B658BF6
:10199000768B57964D915D916D917C915A97478BBF
:1019A000508F618F728F5B968D919C91948F838FF6
:1019B00008950895FC01818D928D009719F061E0E2
:1019C0000C942C0A0895DC015996ED91FC91309706
:1019D000B9F083899489A589B68942855385648540
:1019E0007585841B950BA60BB70B811520E8920714
:1019F000A105B10538F08FEF9FE7A0E0B0E00895B2
:101A000090E080E00895DC0159968D919C910097BB
:101A100039F0DC01ED91FC910480F581E02D099411
:101A200090E080E00895CF93DF93EC01E98DFA8D8B
:101A3000309749F481E090E09B838A8390E080E0D6
:101A4000DF91CF91089513821282898D9A8D0E9421
:101A5000DD0AE98DFA8D22813381232B59F7F0CFEE
:101A6000CF93DF931F92CDB7DEB76983DC01ED9191
:101A7000FC910280F381E02D41E050E0BE016F5FF8
:101A80007F4F09950F90DF91CF910895CF93DF930A
:101A90001F92CDB7DEB741E050E0BE016F5F7F4FD0
:101AA0000E942509019731F4898190E00F90DF9120
:101AB000CF9108958FEF9FEFF9CFFC01818D928D2B
:101AC000009711F00C94460D8FEF9FEF08950F9340
:101AD0001F93CF93DF93EC01898D9A8D10E000E086
:101AE000009799F00E94460D8C010F3F100769F096
:101AF000898D9A8DFC014285538564857585415099
:101B00005109610971090E947F07C801DF91CF91D6
:101B10001F910F910895CF93DF93FC010190002056
:101B2000E9F73197AF01481B590BBC0183E894E0FA
:101B30000E941201EC0142E050E061E471E083E8B0
:101B400094E00E9412018C0F9D1FDF91CF910895A8
:101B50000F931F93CF93DF93EC0180E2689FF00116
:101B60001124E558FD4F6A8B809103019091040187
:101B7000A0910501B09106018E879F87A88BB98B34
:101B80000489158930E020E09801112700270F8B88
:101B9000188F298F3A8F828D938DB0E0A0E0AC0131
:101BA000BD01402B512B622B732B4F8B588F698FAC
:101BB0007A8F83858871A9F4848D958DA68DB78DD4
:101BC0008B8B9C8BAD8BBE8B81E08D8381E08C8376
:101BD0001E821F82188619861A861B861C861D8601
:101BE00003C0803131F080E0DF91CF911F910F91E0
:101BF00008959E012D5E3F4F8B8D9C8D0E94C006E7
:101C0000882389F384E0E1CFAF92BF92CF92DF9235
:101C1000EF92FF920F931F93CF93DF93CDB7DEB771
:101C20002B970FB6F894DEBF0FBECDBF6C01FE013F
:101C30003196CE010C967F0120E22193E817F90737
:101C4000E1F7DA0120E037E09D91B92E9923A9F15F
:101C50009E32B9F43A3091F480E02B960FB6F894A6
:101C6000DEBF0FBECDBFDF91CF911F910F91FF90CF
:101C7000EF90DF90CF90BF90AF90089528E03AE0CA
:101C8000E3CFE8EBF0E08491882321F031969813BC
:101C9000FACFE2CF321700F38FED890F8E35E0F6E1
:101CA0008FE9890F8A3118F440EEB42EB90EF7018E
:101CB000E20FF11DB0822F5FC7CF8981803261F2C0
:101CC0008B01FB01838D948DF601948F838FFB0133
:101CD0001682178210861186128613861486158640
:101CE000F80182859385A485B585438954896589E2
:101CF000768984179507A607B70708F0ADCF25E0CA
:101D0000B695A795979587952A95D1F7F82FFF70E7
:101D1000AF2EF8018581823008F49ECFC8010E9461
:101D2000460D97FD99CFF80182859385A485B585E9
:101D30004F96A11DB11D82879387A487B587F0E2D6
:101D4000AF9EB001112465587D4F6115710509F4EE
:101D500083CFFB018081882309F1853E19F4B110FE
:101D600032C01EC04BE050E0C7010E945C17892BB7
:101D700009F0B6CF6A2DC6012B960FB6F894DEBFD8
:101D80000FBECDBFDF91CF911F910F91FF90EF90CC
:101D9000DF90CF90BF90AF900C94A80DB1105CCFA6
:101DA000F601A28A8091030190910401A09105019E
:101DB000B091060186879787A08BB18BFB0180814C
:101DC000882309F449CFBB24B3948ACF8091390585
:101DD00090913A05009761F00E94D00A80913905F0
:101DE00090913A050E94D31610923A051092390547
:101DF0000895EF92FF920F931F93CF93DF93EC011F
:101E00007B018A011B821A8288EE93E0A0E0B0E099
:101E10008C839D83AE83BF8387E291E0998388831F
:101E20008DE190E00E9437169A8F898F009779F0A4
:101E30002DE1F701DC0101900D922A95E1F74CE0CC
:101E400050E0B801CE010C960E946917188EDF9100
:101E5000CF911F910F91FF90EF900895EF92FF9215
:101E60000F931F93CF93DF93CDB7DEB7C257D1093E
:101E70000FB6F894DEBF0FBECDBF90917B0480916A
:101E80008204981709F473C01092780280916F0051
:101E90008E7D80936F000E948F0081110E94E60E5C
:101EA0008091800090E0880F892F881F990B0197FF
:101EB000C9F5809188009091890050E040E0209120
:101EC0008004309181044217530764F570E060E0AC
:101ED00097FD05C0B901821793070CF4BC017093FC
:101EE0008B0060938A0070E060E097FD05C0B90147
:101EF000821793070CF4BC017093890060938800EB
:101F0000225331096AE070E0E0918400F09185008D
:101F1000E217F307C8F361507109B1F74F5F5F4FE4
:101F20000197CDCF809102018062809302011092CF
:101F300081001092800080917B040E949B00809120
:101F40007B04863009F488C18E3209F487C185305C
:101F500009F086C181E0809379028DB581608DBDE5
:101F60008CB58C7F8CBD80917B0480938204109211
:101F7000780280916F008E7D80936F000E948F00A9
:101F800081110E94E60E1C821B8209E311E01A8374
:101F900009831E82CE0101960E942B07BE016F5F4E
:101FA0007F4FCE01CB960E94890C19A218A21F8FD9
:101FB0000E8F1BA221968FAD2197811154C16C9673
:101FC0001FAE1EAE6C9788EE93E0A0E0B0E0A09646
:101FD0008CAF9DAFAEAFBFAFA09787E291E06A969E
:101FE0009FAF8EAF6A97E3961FAE1EAEE397A5969E
:101FF0001FAEA5976C968EAD9FAD6C979093230501
:1020000080932205A0968CAD9DADAEADBFADA097DF
:102010008093240590932505A0932605B09327056A
:10202000A4968CAD9DADAEADBFADA49780932805B1
:1020300090932905A0932A05B0932B05A8E5B0E05D
:10204000AC0FBD1F1C96ECE2F5E08D91819365E02D
:10205000E933F607D1F7E3968EAD9FADE397909302
:102060003A05809339050E948F00882309F4E6C061
:1020700068E070E080E090E00E94130880910D011C
:1020800090910E01A0910F01B091100189839A8364
:10209000AB83BC838E010F5F1F4F7E0175E0E70E9F
:1020A000F11C80E295E00E945D0DF80121918F0105
:1020B000022E000C330B8217930719F4EE15FF055F
:1020C00081F768E170E080E090E00E94130880E210
:1020D00095E00E945D0D90937F0480937E0480E2E2
:1020E00095E00E945D0D20E0382F80917E04909154
:1020F0007F04282B392B30937F0420937E046CE2DD
:1021000070E080E090E00E94130880E490E09093FB
:1021100077028093760281E08093780280910201B9
:10212000982F9F779093020120917E0430917F0435
:102130002B3F3F4A30F020EC3DE530937F04209365
:102140007E0420917E0430917F0450E040E086FFC1
:10215000ACC060E075E38CE090E00E94D6156AE0C8
:10216000629FC001639F900D11249093810480931E
:10217000800480E295E00E945D0D8C0180E295E094
:102180000E94670D800F911F97FD01969595879589
:1021900030917502432F032E000C550B13160CF0D3
:1021A00089C04091880050918900BA0102C076959B
:1021B00067953A95E2F79B01992750E040E0281790
:1021C000390708F084C02F5F3F4F8217930708F448
:1021D0009C01FA01EB50FE4F20834F5F5F4F40346C
:1021E000510589F750E040E02F5F3F4F821793077A
:1021F00008F49C01FA01EB5CFD4F20834F5F5F4FB9
:102200004034510589F71092F401109200011092A8
:1022100001011092F301F89480918004909181045F
:10222000909387008093860082EB8093800089E101
:102230008093810081E280936F007894CE58DF4FC5
:102240000FB6F894DEBF0FBECDBFDF91CF911F91C7
:102250000F91FF90EF90089582E07DCE83E07BCEDA
:10226000109279027ACE44E451E0BE01655C7F4F62
:10227000CE014E960E94040E882309F4A0CECE0112
:10228000CB960E94D00ABE01625E7F4FCE010196BE
:102290000E94890C44E451E0BE016F5F7F4FCE0184
:1022A000885A9F4F0E94F90EA5CE60E07AE688E139
:1022B00090E053CF2091880030918900519541954D
:1022C000510902C0220F331F4A95E2F775CFB901B9
:1022D000615071096817790718F12115310509F066
:1022E0009B01FA01EB50FE4F20834F5F5F4F40345C
:1022F000510569F750E040E0B90161507109681774
:10230000790780F02115310509F09B01FA01EB5C9A
:10231000FD4F20834F5F5F4F4034510569F773CF06
:102320009C01DFCF9C01F2CF1F920F920FB60F924C
:1023300011242F933F938F939F93AF93BF938091DB
:10234000ED019091EE01A091EF01B091F00130917B
:10235000EC0123E0230F2D3758F50196A11DB11D87
:102360002093EC018093ED019093EE01A093EF0197
:10237000B093F0018091E8019091E901A091EA0108
:10238000B091EB010196A11DB11D8093E8019093DE
:10239000E901A093EA01B093EB01BF91AF919F9146
:1023A0008F913F912F910F900FBE0F901F90189516
:1023B00026E8230F0296A11DB11DD2CF1F920F92C6
:1023C0000FB60F9211242F933F934F935F936F9308
:1023D0007F938F939F93AF93BF93EF93FF9383E884
:1023E00094E00E949001FF91EF91BF91AF919F9176
:1023F0008F917F916F915F914F913F912F910F90AE
:102400000FBE0F901F9018951F920F920FB60F924C
:1024100011242F938F939F93EF93FF93E091930455
:10242000F09194048081E0919904F0919A0482FDE6
:102430001BC0908180919C048F5F8F7320919D04BD
:10244000821741F0E0919C04F0E0ED57FB4F958F2F
:1024500080939C04FF91EF919F918F912F910F900A
:102460000FBE0F901F9018958081F4CF1F920F928E
:102470000FB60F9211242F933F934F935F938F9337
:102480009F93EF93FF938091020186FD3FC02091BF
:102490007502422F022E000C550B27FF4FC0809172
:1024A000F4012091F30130E4839FC00111248B508B
:1024B0009E4F820F911DFC01808190E051954195C6
:1024C000510902C0959587954A95E2F790938B0044
:1024D00080938A0090938900809388008091F30113
:1024E0008F5F8093F3018091F3018034D0F01092DC
:1024F000F301E091F401F0E0E050FF4F91E09083B0
:102500008091F40189278093F4010BC08091E6014A
:1025100091E089278093E6018091E601882309F400
:10252000B6CFFF91EF919F918F915F914F913F9126
:102530002F910F900FBE0F901F9018958091F4016E
:102540003091F301F0E48F9FC00111248B509E4F16
:10255000830F911DFC01808190E002C0880F991FBC
:102560002A95E2F7B3CF1F920F920FB60F92112464
:102570002F933F934F935F936F937F938F939F938B
:10258000AF93BF93EF93FF93E091F40191E0E927BC
:10259000F0E0E050FF4F80818823B9F18091F40191
:1025A00089278093E50180916F008F7D80936F0074
:1025B000789480E295E00E94E30C209176023091BD
:1025C00077022817390794F18091020183FF0CC02C
:1025D0006CE270E080E090E00E94130880916F0050
:1025E000806280936F0011C080916F008E7D809318
:1025F0006F00E0913905F0913A05309721F085811F
:1026000081110E94E60E10927802FF91EF91BF9126
:10261000AF919F918F917F916F915F914F913F917A
:102620002F910F900FBE0F901F9018956091E501AC
:102630008091390590913A05009751F020E4629F0E
:10264000B00111246B507E4F40E450E00E942509F8
:10265000E091E501F0E0E050FF4F1082BFCFE3E8EA
:10266000F4E01382128288EE93E0A0E0B0E084836D
:102670009583A683B78325E131E03183208325EC60
:1026800030E03587248724EC30E03787268720EC3C
:1026900030E0318B208B21EC30E0338B228B22EC2D
:1026A00030E0358B248B26EC30E0378B268B118E77
:1026B000128E138E148EE0E2F5E013821282848370
:1026C0009583A683B78387E291E091838083128EFE
:1026D000118E1486EBE3F5E080E580831182EDE353
:1026E000F5E0158216821186138682E090E0A0E064
:1026F000B0E084879587A687B78713A215A614A68E
:1027000089E391E093A782A717A60895CF93DF935B
:10271000CDB7DEB7C456D1090FB6F894DEBF0FBEF1
:10272000CDBF789484B5826084BD84B5816084BD5A
:1027300085B5826085BD85B5816085BD80916E005F
:10274000816080936E001092810080918100826090
:1027500080938100809181008160809381008091CD
:1027600080008160809380008091B10084608093BC
:10277000B1008091B00081608093B00080917A00B8
:10278000846080937A0080917A00826080937A00DE
:1027900080917A00816080937A0080917A008068CD
:1027A00080937A001092C100E0919304F091940418
:1027B00082E08083E0918F04F09190041082E09198
:1027C0009104F09192048FEC808310929B04E0912D
:1027D0009704F091980486E08083E0919504F0914D
:1027E0009604808180618083E0919504F091960445
:1027F000808188608083E0919504F09196048081C7
:1028000080688083E0919504F091960480818F7DAB
:1028100080838FE491E00E948B0D80916C0588236A
:1028200021F087E695E00E94D00A109248051092A8
:102830004605109243051092420584E080934105BD
:102840000E9406018B01809141050E949B0061E07E
:10285000809141050E94BA00FFB6F8948091E7018B
:10286000811124C0EAE9F0E08491EEEAF0E094916D
:10287000E82FF0E0EE0FFF1FEA57FF4FA591B4914C
:10288000EC91E92321F461E08AE00E94BA008AE039
:102890000E949B008CB580618CBD8CB580648CBD22
:1028A0008DE00E949B008BE00E949B008091E701DD
:1028B0008F5F8093E701FFBE82E580933B05109216
:1028C0003C0580913B0590913C050E9455023AE001
:1028D000F32E8FEF0E943002FA94F110FACF8DE3BD
:1028E00095E00E94580220E030E0A90160E08DE30D
:1028F00095E00E946E02F82E8093470581E0F8165D
:1029000099F00E940601601B710B613D774058F3FE
:1029100081E0809342058DE395E00E9425028AE8DC
:1029200091E00E948B0DFFCF2AEA31E040E050E0B9
:1029300068E08DE395E00E946E0282FF2AC0F0926B
:10294000480580914805C12CD12CE12C90E4F92E4A
:10295000823019F0C12CD12C760120E030E0A901A1
:1029600067E38DE395E00E946E02A701960169E29C
:102970008DE395E00E946E02809347058823D1F095
:102980000E940601601B710B613D774030F388E0C7
:10299000C0CF24E0F22E0E94370280934705FA94BC
:1029A000F110F9CF8A3A11F082E0B3CF82E0809340
:1029B0004805C7CF809148058230D1F420E030E04F
:1029C000A9016AE38DE395E00E946E02882311F06D
:1029D00086E09FCF0E943702807C803C19F483E020
:1029E000809348050E9437020E9437020E943702F6
:1029F0008DE395E00E94250280E580933B051092CF
:102A00003C0581E00E947404882309F492C087E6A3
:102A100095E00E942B07882309F481CF87E691E097
:102A20000E948B0D89E080937B048091780288233B
:102A300009F486C081E0809375021EAE1DAE89E365
:102A400091E09CAF8BAF21961FAE219719A218A2DF
:102A50009F8F8E8F1BA2912C812C7E018BE3E80E21
:102A6000F11C07E615E089E3A82E81E0B82E892D38
:102A7000982DFC01EC5BFE4F20812F3209F401966A
:102A8000DC01AC5BBE4FFE01E85AFF4F30E020E0B6
:102A90006F014D914F3249F0442339F001962F5F79
:102AA0003F4F41932C303105A1F72C0D3D1DF9010D
:102AB0001082FC01EC5BFE4F20812F3209F401965D
:102AC000982E892E8C5B9E4FFC0170801C821B828D
:102AD000BA82A9821E82A601B801CE0101960E9487
:102AE000040E882309F44AC0CE0101960E94D00A40
:102AF00071102CC085E00736180719F0C8010E9434
:102B0000D00A89EA91E00E948B0D0E942E0F00E00E
:102B100010E080917802811102C00E942E0F0115F1
:102B20001105B9F30E947C01882399F30E940000EB
:102B3000F0CF80E00E947404882309F4F0CE67CFC0
:102B40008091020180648093020174CFF701858136
:102B5000811127C0A601B801C7010E94040ED82E1A
:102B6000F5E007361F0791F0C8010E94D00AD11086
:102B700012C08DEB91E00E948B0DC9CFE5E00736C6
:102B80001E07B9F3C8010E94D00AF3CF882389F346
:102B90008E01025E1F4F902F812F8701E92EF82EA4
:102BA00066CFF5E007361F0721F3ECCF052E97FB24
:102BB0001EF400940E94ED1557FD07D00E940016E8
:102BC00007FC03D04EF40C94ED15509540953095CC
:102BD00021953F4F4F4F5F4F089590958095709589
:102BE00061957F4F8F4F9F4F08950E942816A59F94
:102BF000900DB49F900DA49F800D911D11240895F8
:102C0000A1E21A2EAA1BBB1BFD010DC0AA1FBB1FF0
:102C1000EE1FFF1FA217B307E407F50720F0A21B62
:102C2000B30BE40BF50B661F771F881F991F1A94CF
:102C300069F760957095809590959B01AC01BD01F9
:102C4000CF010895EE0FFF1F0590F491E02D099438
:102C5000A29FB001B39FC001A39F700D811D1124DD
:102C6000911DB29F700D811D1124911D08950F9328
:102C70001F93CF93DF938230910510F482E090E0B0
:102C8000E0918805F091890530E020E0B0E0A0E017
:102C9000309799F42115310509F44AC0281B390BE6
:102CA00024303105D8F58A819B816115710589F140
:102CB000FB0193838283FE0111C040815181028117
:102CC000138148175907E0F04817590799F41097EE
:102CD00061F012960C93129713961C933296CF01C3
:102CE000DF91CF911F910F91089500938805109364
:102CF0008905F4CF2115310551F04217530738F0FB
:102D0000A901DB019A01BD01DF01F801C1CFEF018B
:102D1000F9CF9093890580938805CDCFFE01E20F0E
:102D2000F31F819391932250310939832883D7CFA0
:102D30002091860530918705232B41F420910901CC
:102D400030910A0130938705209386052091070171
:102D5000309108012115310541F42DB73EB740915E
:102D60000B0150910C01241B350BE0918605F0916D
:102D70008705E217F307A0F42E1B3F0B281739072E
:102D800078F0AC014E5F5F4F2417350748F04E0FC7
:102D90005F1F5093870540938605819391939FCF42
:102DA000F0E0E0E09CCFCF93DF930097E9F0FC01E7
:102DB000329713821282A0918805B0918905ED01A6
:102DC00030E020E01097A1F420813181820F931F21
:102DD00020918605309187052817390709F061C0D1
:102DE000F0938705E0938605DF91CF910895EA017E
:102DF000CE17DF07E8F54A815B819E014115510539
:102E0000B1F7E901FB83EA8349915991C40FD51FBA
:102E1000EC17FD0761F4808191810296840F951F64
:102E2000E90199838883828193819B838A83F0E07F
:102E3000E0E012968D919C9113970097B9F52D9132
:102E40003C911197CD010296820F931F2091860528
:102E5000309187052817390739F6309751F51092C8
:102E6000890510928805B0938705A0938605BCCF8D
:102E7000D383C28340815181840F951FC817D9071E
:102E800061F44E5F5F4F88819981480F591F5183CC
:102E900040838A819B81938382832115310509F0C8
:102EA000B0CFF0938905E09388059ECFFD01DC014A
:102EB000C0CF13821282D7CFFB01DC0104C08D91F9
:102EC0000190801921F441505040C8F7881B990B9C
:102ED0000895FB01DC014150504048F001900D92F3
:102EE0000020C9F701C01D9241505040E0F70895FD
:042EF000F894FFCF84
:102EF400010160FFFFFFFF00008A05800057415673
:102F04004500000000B20112013F01FF0170014EB3
:102F140001620100000000300D130D030DDA0CE313
:102F24000C5D0D670D00000000780C1201720AD9C7
:102F34000C0D0A006E6F726D616C2E77617600491C
:102F44006E697469616C697A696E672053442063A1
:102F54006172642E2E2E00534420636172642069D2
:102F64006E697469616C697A6174696F6E207375D6
:102F7400636365737366756C2E00534420636172DA
:102F84006420696E697469616C697A6174696F6ED1
:102F9400206661696C65642E00506C6179696E67A6
:102FA400206C696B652E7761762E2E2E0045727229
:102FB4006F723A206C696B652E7761762066696C56
:0E2FC40065206E6F7420666F756E64210000CC
:00000001FF
