:020000040000FA
:100000000C94F43A0C94063B0C94063B0C94063B7F
:100010000C94063B0C94063B0C94063B0C94063B5C
:100020000C94063B0C94063B0C94063B0C94773BDB
:100030000C94063B0C94063B0C94063B0C94063B3C
:100040000C942D3B0C94063B0C94063B0C94063B05
:100050000C94063B0C94063B0C94063B0C94063B1C
:100060000C94063B0C94063B0000000800020100C3
:100070000003040700000000000000000000000072
:10008000250028002B0000000000240027002A0083
:10009000040404040404040402020202020203032E
:1000A0000303030301020408102040800102040836
:1000B00010200102040810207E7D7E7E7E7E7E7EE2
:1000C0007E7E7E7E7E7E7D7D7D7C7B7B7A7A7A7A6B
:1000D0007B7A797A7A7777787674737475747273B9
:1000E00077787878797A75706F6F6C6C737B8289AA
:1000F000929B9E9B989690878281808184888F991D
:10010000A1A4A6A8A8A49D9693908C8B8C8F919364
:100110009596969696959492908C87827D77716C41
:1001200069696A6C707678797978736D655D555117
:100130004F4F51565E656A6E737676736F6C6A695F
:1001400068696C6F747A7F8387898C8E8F909091A9
:1001500093929192939394959598999A9C9F9F9E30
:100160009C9997938F8C89868687878787878785D1
:10017000827F7C7874706D6B6968696B6C6D6E7072
:10018000706F6D6D6B6A6B6C6C6C6E707274767880
:100190007B7E818486898B8C8B8B8C8D8D8B8B8DDC
:1001A0008F909294979A99989896938F8C8A888634
:1001B000878A8C8B888789877F7A7A787472737341
:1001C000737373716F6D6B6A66636363626363619C
:1001D0006062615E5E5F5D5C5C5D5F60606161602E
:1001E000606160616466696E706F6F6A62606365AA
:1001F0006975899EADB7C2C6BEB1A597887F808854
:100200009099A9BBC9D0D3D3CDC1B6ABA09C9A99C4
:100210009CA5AFB3B2B2B2AEA8A4A09D9B98948A9D
:100220007F776D625E5C5C64727D807F7E796953EE
:1002300043372B23222B38424F5D696F6E6A665F0E
:10024000534C4A4C52585F6972797B7C7F83858717
:100250008B939897959593908E8C8F979DA4ADB521
:10026000BBBCB7B2ADA197908B88898B9199A1A5A2
:10027000A6A39D958D837A736F6E70707174767579
:1002800073716F6B68666362616061636363666804
:100290006A6C6C6C6F726E6C6F71717374777A7C50
:1002A0007D7F7E7E818283878A8C909293929090CC
:1002B0008F8B8889898A8D9296969596948F89845A
:1002C000807E7D80828588898684827D7570706D50
:1002D00067646465636162656465696864625E5AE7
:1002E0005653525050595F5D5D6063656569748215
:1002F000919CA1A4A8A69E96928C8486939A9EA96E
:10030000B5C1CBD1D1CBC2BEB9ACA4A6ACAEB0B74F
:10031000BFC0BDBBBAB6B1ABA6A4A1998D847F788E
:10032000706A686A6E727473726F695F534B443B94
:10033000373A3D40444950565655524E4D4A47482B
:100340004D545A5E63696D6E6E73777B7F83888EC2
:10035000908F9296989A9DA1A7AFB2B3B9BFBFBB39
:10036000B7B2ADA69FA0A1A0A5ACADAEAEACA59B0B
:1003700094918B837F7D7B76737475706B6A6B6DE4
:10038000696464655E58544E4A464446474A51592A
:100390005F626465645F58514B4B4C4D52575E64CD
:1003A00066666A6C696664686C6A686C6E6B686ABB
:1003B000707371747A7E7B7472798495A3AFBDCCAF
:1003C000D4D0C3B4A69A918C8D95A0ADBAC3CDD527
:1003D000D2CAC6C1B5A49DA4A59FA2B0BABBB6B3EC
:1003E000B1AAA39D9896938E86807B71625B5E61B5
:1003F000626871797D7B73675848372C28282E39BD
:1004000048555D656A6962574D4845474F5966765C
:1004100080898F8B827E7D7E7E828F9BA5AEB5B7D5
:10042000B8B2ADA9A7A7A9ADB7C2C6C8C8C3BBB16A
:10043000A9A29B9BA2A7A9AAABABA59A8F857D7603
:10044000706E6E6E6D6A67655F554E4A494A4849DF
:100450004E4D4D514E45403C36322F333C42464B7B
:100460004D4D4D4A423D3E42454C5253585F5E5BB6
:100470005D606364666A68626365646D85A3BFD806
:10048000ECF2EAE3DCC6A38C8B91929BAAB9CBDF9A
:10049000EDF5F8F8ECD4C2B9AC9B949CACB4B7C001
:1004A000C7C6C2BAB1ADACA99F90857B6E605450EF
:1004B0005357606F798081786C6051402C202226E0
:1004C0002932404E56585D625E554E48494D52594C
:1004D000616E797B7C7D78787E7E808D9DA7A9AAD0
:1004E000AFAFA7A2A3A3A4ADB5BDC7CDC8C1C0BFC0
:1004F000B5A7A1A6A6A2A6ACADACAAA39A928878ED
:100500006E6D6B686B6E71736C625A504741393314
:100510003536363A3A353536312B27292E2E2B30C3
:1005200034343230363D38333C453F373B4B5D70D9
:10053000869CB0C3CFCFC5BBB1A497969B9DA4B5F5
:10054000C9D9E9F7FEFFFDF4E6DAD0C6C0C3CAD0C8
:10055000D2D7DFDCD4D1CDC7BFB3ACA89E93877A06
:1005600074706461696B6C7274716D5F4F463B2E81
:100570002420232A2E323C45484B4C48413F403DE5
:100580003D4750555F6B737572747A7979838F9696
:100590009BA0A4A5A7AAA8A5A7ADB1B6BDC2C3C379
:1005A000C4C6BDAFA6A49C94979D9EA3A7A29C94ED
:1005B000897F73655C57535457534C50564F443F93
:1005C0003C37323031302E3133302F3233312C3012
:1005D000332926343D41556C7E919FA4A399929571
:1005E0008F7E7C8C979EAAB7C4D2DCE0E2E3DDD29A
:1005F000CBCBD0CFCBD1DDE1D8CFCFCEC8C1BFC21E
:10060000C5C3BEB5A99C8E837A7373787A7D8386C1
:1006100082786C6253433B37353538424B4E5153E9
:10062000514D4A48464242474D52575C61636061B2
:1006300064676E78828B939A9C9995938F87838851
:100640008F939BA3ABB2B4B1B1AEA5A09D98969287
:100650008D8F908A837E797978716F7476716C6CE6
:100660006A60544E4539373C38343E47443F3E3B40
:1006700032262B3F4D5C798F90929D9985766E68DE
:100680006A76818B96A6B9C4C8CFD2C6BBBFBFB4A9
:10069000B3C3CDCBCDD1CDC7C1BDC0C4C9D4DAD1D0
:1006A000C9C4B59F8E82797372767F858A8F928E48
:1006B00084766856443C38353942474C5153524E43
:1006C000484849494E5253565A5B5C595A63686AC6
:1006D000717579838786888B8B8D8E8E8F92949699
:1006E0009B9D9D9B9B9997908A8C8E8B898D8E89E3
:1006F000827E7B776F6B68615E605B575856514FA7
:100700004C453F3B3F4B57647683898D8D857A708E
:10071000665F616C767F8A939AA3ACB0AFAAA9ACEE
:10072000ACA8AAB1B4B6BDC2BEB9BBBCBAB9BCC351
:10073000C7C2BDB9AFA49D9486818587888C8D8BF7
:100740008D8E877D74695F574E4A4A494C5150518E
:10075000595C5A5D626161636363605C5B5A595DB9
:10076000605F66737A818B9194989B968D8986825F
:100770007F81848587909897949392928E878481C5
:100780007977756F6D6B686966605F5F5C5A5A59FF
:100790005555554C43424954626F7D86888B8F8CEA
:1007A0007E6E6C767B7A7F868B939DA7ABABADB16B
:1007B000B2ACA8ACAFB0B5BBB9B5B6B5ACA9B1B524
:1007C000B6BDC2BFB9B0A69B8D837F7C7C84888276
:1007D000848F8D7F7C7C6E5F595451504D50595C95
:1007E0005F625E5D615B555C6060686966696660FA
:1007F00063636168707982878C929392928D847C16
:100800007A7A77787D83868A90928D888989857FA8
:100810007A7B796E6667645E5C5D5D5E5F5E5D5B84
:100820005855535968717176838C8B878783797596
:100830007977747A838B9199A5ACA8A8ADA7A0A469
:10084000A8A5A7AFB3B1AFAFAEAAA8AEB8B7B3B9BA
:10085000BEB5AAA49C918B857E818684878D8B8A68
:1008600089817B756B64615E5C5E5E5C5C5C5A5822
:1008700058595B60686C6C6F726D6866605C61642F
:10088000656C757C84898A8C8B86817B76737170AC
:1008900072767D848582848886807D7C7B766D6996
:1008A0006B665E5F63615F5D5C5D5F5B575F6C792C
:1008B0008282848F938C88857C7675797E8082870E
:1008C000909A9FA2A7A6A3A4A3A1A0A1A8B0B0AEEE
:1008D000B1AEA8A7A6A2A7AFB0B1B5B4AEA7A09A73
:1008E000938A86858484868585888A88827C766CCE
:1008F00066625F5E5E60615C5B5F5C596166666AF2
:100900006A686B6962636361686E6A6C76797A7E25
:10091000807F7E7D777476736E737877797B7D7E4A
:100920007C78787979777473706F6C6766655E5BD5
:100930005E5D5A595E6970778590919194968F8328
:100940007D7B7673787E7E808B94969CA3A7A6A7EA
:10095000ABA7A0A8ACA2A2A9A7A29FA0A5A4A2AD44
:10096000B5B3B2B5B2AAA39C948F898383848484DF
:1009700083878A888788827C7976716A635E5A5811
:1009800058575B5E616B6F6E727472726D676767EA
:1009900065646568676A706F6F7475747676787869
:1009A00073757979736D6E716E6B6B6B7175737135
:1009B0006F6E6E6862625F59575D67696A7C90917D
:1009C0008F979A9188888274707B857F77839492C1
:1009D000909FA39A9FA9A59F9F9E9E9FA2A49F9828
:1009E000A0A9A3A1ADB3B1B4B4ACA6A49F968E8ABE
:1009F0008A8B88898C8D8E9192918E8885827D7765
:100A0000706C6A6764615F6367696D7376777A7C1F
:100A100079726C696A6862616667686E717070731A
:100A200075726C6A6D6E6A6A6C6A6A6C6B6560631B
:100A3000696866686A6D706E67605C5D5F5953597E
:100A40006C787D83878B91928C8278777E7E7E7E98
:100A50007F888E8C919694989FA4A4A0A3ACACA4FC
:100A6000A2A4A39A969B9C9BA3AAABAEB2B1ACA541
:100A7000A09C95939696908E9295918D8B8C8B8A57
:100A8000898887827D7E7E7873716D6E6D6A6C70E9
:100A900070767C797A7E797577726D6D6A67666437
:100AA0006466646569696C72706A6A6C6B686261BD
:100AB0006463605F5D5B5F63605F66655C5F645C31
:100AC00059667173767C82837F7E827D737986819D
:100AD0007B888B7F8392908C90959B9E9A9DA5A0FE
:100AE0009FAAAA9F9C9F9D9A9C9FA0A4ADAFABAAD2
:100AF000A8A3A09C9A9D9B989A9993959793918F60
:100B00008E91908B88838184837E7C7975737474D5
:100B1000707075787B7D78777B767174716B6965A1
:100B200063635C5A5F6161656868676A6B66656884
:100B300066605F605D5A595D5D58595F605F605FD8
:100B4000616D7879777B82837D7A7D7B7577808212
:100B50007F7F83868A8B8E92949497999A9B9C9D93
:100B60009E9F9F9F9D9798A09E9BA2A4A1A6A7A38E
:100B7000A29C9AA09E989B9C989796969492918EF0
:100B80008C8F8E8C8D89858888827E787577777535
:100B90007473767D7D797A7D7D7B787777736D6AE6
:100BA000676261605E5F6261646B6C686B6D6C6AEA
:100BB000666467635F5E5C5C5F5D585A5E61626439
:100BC0006A71767D807F7E7F7F7C77737376797C98
:100BD0007C7B808989878C8F8F9497959699999A39
:100BE00098979999949497999A9D9F9FA1A2A4A34D
:100BF0009C9A9C9D9B9B9999989797979491939475
:100C0000918F8F8F8C8A8B888483817D7C7D7B7A8A
:100C10007B7B7D7E7B7C7D797779777371726F6B5F
:100C20006967666665646566666768696968686954
:100C300067646261605E5E5E5D5F616164696D7183
:100C4000717175797A797776767876747576757745
:100C50007C7D7E8386878A8D8D8F929191919091F4
:100C6000908E9093929296999A9A9C9F9E9DA0A006
:100C70009E9E9F9E9C9B9B9A9998989998969798D0
:100C800096959594918E8D8B8887868484858586AC
:100C900086838282807D7C7974757572706E6C6BD0
:100CA0006B68696968686867666666636161615FE9
:100CB0005D5D5D5E5D5E60606063686866686A6B0E
:100CC0006D6E6D6D6F7071717071737577787A7B01
:100CD0007D82848384878A8B8C8B8C8E9091929278
:100CE000949799999A9B9D9FA1A1A1A3A3A3A4A323
:100CF000A2A2A1A1A19F9F9F9F9F9E9C9B9B9B980F
:100D000095949391908E8B8A8A8A89868484838134
:100D1000807E7B79787673706F6D6A6A69676665C5
:100D20006464636261615F5E5D5C5B5A5A595858E6
:100D300058595B5A5A5C5F606264656768696A6C9F
:100D40006C6B6C6E707172737577797C7F80828545
:100D5000888A8B8C8E9193959696989A9C9C9D9F51
:100D6000A1A2A3A4A5A6A7A8A8A8A9A9A9A9A8A61D
:100D7000A6A5A5A4A3A1A09F9D9B9A9895949391A5
:100D80008E8D8C8988868483817F7E7B7876747251
:100D9000716E6B6A68666563605F5F5D5C5B595925
:100DA0005857555454555554535455565757585AE7
:100DB0005C5E5F6062656667696C6D6E70717375AD
:100DC00076787A7D80828486898C8E9092949598AC
:100DD0009B9B9C9DA0A2A2A3A5A6A8AAAAA9A9ABD9
:100DE000ADADABABABACACAAA7A6A7A6A4A29F9E89
:100DF0009E9D9A98969494928E8B898887858380FD
:100E00007E7E7C79757270706D6A686765636261F9
:100E10005F5D5C5B5A59585756555554545353535C
:100E200053535354555657595A5C5E606263646617
:100E3000686A6B6C6E7072737577797C7E8184865C
:100E4000898C8E9092949698999A9C9D9FA0A2A42A
:100E5000A5A6A8A9AAAAABACACACADACABABAAA9F1
:100E6000A8A7A6A6A5A3A2A1A09F9E9C9998979586
:100E700092908D8C8A878583817F7D7A777472705A
:100E80006D6B6967656361605F5D5B595857565567
:100E90005352525150504F4F4F4F5051515354573E
:100EA000595B5C5E6163646668696B6D6F717375D5
:100EB00077797C7F8284878B8D90939496989A9C87
:100EC0009E9FA0A2A4A5A7A8A9AAACADAEAEAEAEA7
:100ED000AFAFADADACABAAA9A7A6A5A4A2A2A09F97
:100EE0009E9C9A98979592908D8B898683807E7B25
:100EF000797774716F6E6C6A67666462605E5C5A63
:100F000059575654535352515151515151515151B6
:100F10005253555657595B5D5F60626466686A6CF0
:100F20006E70717476787A7E818386888B8E9093CA
:100F30009697989A9D9EA0A2A3A4A6A8A9AAABAC96
:100F4000ADAEAFAFAFAFAEAEADACABA9A8A8A6A5E6
:100F5000A4A2A1A1A09D9C9A989694928F8D8A8715
:100F600085817F7C7A777472706E6C696866646262
:100F7000605E5B5958575554535251505150505020
:100F80005050505151525455585A5A5B5D606264EA
:100F90006566696B6D6F707275777A7D8082858802
:100FA0008B8D90939596989B9C9EA0A1A3A5A7A896
:100FB000AAABABADAEAFB0B0B0B0B0AFAEACABAA59
:100FC000A9A9A7A6A5A4A3A2A09F9D9A989694912B
:100FD0008F8C898784817E7C79777572706E6C6A5C
:100FE00069666462605E5C5A595856545453535251
:100FF000525252525252525253545556585A5B5CA6
:101000005E6061636567696A6C6F70727477797C22
:101010007F818486888B8E9092949698999B9C9DD4
:101020009FA1A3A4A6A7A8AAAAAAABACACACACAB40
:10103000ABABAAA9A8A7A7A6A4A2A1A09F9D9C9A72
:1010400098969492908D8A888582807E7B7976743A
:1010500072706E6C6A676564615F5E5C5B5A58585B
:101060005757565656555554555555555658595A1D
:101070005B5C5D5F6062646567696A6C6E70727408
:1010800077797C7E808385878A8C8E9092949597E1
:10109000989A9C9D9FA0A2A3A4A5A6A7A8A9A9A928
:1010A000A9A9A8A8A7A6A5A4A4A3A1A09F9E9D9B0B
:1010B0009A98969593918F8D8B888684817F7D7B7E
:1010C00079767472706F6D6B6967656362605F5E7D
:1010D0005D5D5C5B5A5A5A5A59595958595A5A5B6C
:1010E0005D5E5F606163646567696A6B6D6E6F7199
:1010F0007375787A7C7E81838587898B8E8F9192B8
:1011000093959698999A9C9D9FA0A1A2A3A3A3A30F
:10111000A4A4A4A4A4A2A2A1A0A09F9D9C9B9A98D1
:101120009795949392908E8C8A8987848381807E10
:101130007C7A7877757371706E6D6B6967666664BB
:101140006362626161606060605F5F5E5E5F5F609E
:101150006061626364656668696A6C6C6E6F707109
:10116000737476787A7C7E8082848587898B8C8E76
:101170008F90929394969798999A9B9B9C9C9D9DF7
:101180009D9E9E9E9E9E9D9D9C9C9B9B9A989796A5
:10119000949391908F8E8D8B8A88878685838180AA
:1011A0007F7D7C7A7876747372716F6E6D6B6B6A0B
:1011B00069686867676766656564646464656566D1
:1011C00066666768696A6B6C6D6E6F707172737555
:1011D0007677797A7B7C7E7F8183858688898B8B05
:1011E0008C8D8E8F909191929293939495969697E1
:1011F0009898999998989897979695949392919092
:101200008F8F8E8D8C8B8A89888786858483828157
:101210007F7E7D7B7A787776757473727272727165
:1012200071706F6F6E6E6E6D6D6D6C6C6D6D6D6DE2
:101230006D6D6F707071717273757576777879797D
:101240007A7A7B7B7B7B7B7B7C7D7D7E7F7F8081D5
:1012500081828485868787888888888889898A8921
:10126000898A8A8A8B8B8B8C8B8B8B8B8B8B8A8AD4
:101270008988888787878787868686868686858504
:101280008686858484838382818180807F7E7E7D43
:101290007D7D7C7B7B7B7B7A7A79797979787878AC
:1012A0007879787879797A7A797A7B7B7B7B7B7BA2
:1012B0007B7C7C7B7B7B7B7C7C7C7C7C7C7D7D7E6F
:1012C0007E808080818283848383838383838383FE
:1012D00083838383838384858585858686868685C7
:1012E00086868585858585848484858585848382B5
:1012F0008281818181808080808080807F7F7F7FEC
:101300007E7D7C7C7C7C7B7B7C7C7C7C7D7E7F7E14
:101310007E7D7D7D7D7C7C7B7B7B7B7A7A7A7A7A15
:101320007A7A7A7A7A7A7A7A7A7A7A7A7A7A7A7A1D
:101330007A7B7B7B7B7B7C7C7D7D7D7E7E7E7F7FE5
:101340007F7F808081818182828282838383838286
:101350008383838383838485848485868788878643
:101360008686858584838383838382828282828248
:101370008282828180808080807F7F7F7F7E7E7F6F
:101380007F7F7E7E7D7E7E7D7D7D7D7E7E7E7E7E80
:101390007E7E7E7D7D7D7D7D7C7C7C7C7C7C7C7C82
:1013A0007C7C7C7C7C7D7D7D7D7C7C7D7D7D7C7D75
:1013B0007E7E7E7E7E7E7E7F7F7E7E7E7E7E7F7E4A
:1013C0007E7F7F7F7F7F7F80807F7F808080808027
:1013D00080808181818282818181818181818080FF
:1013E000807F7F7E7E7E7E7E7E7D7E7E7E7E7E7E1A
:1013F0007E7E7D7E7E7E7E7E7E7F7F7E7F7F7F8007
:1014000080808080808080808181808080808080DA
:1014100080808080808180818181818181818181C2
:1014200081818181818181808081808080808080B4
:101430007F7F7F7F7F7F7F7F7F7F7E7E7E7E7E7EC2
:101440007E7D7E7E7E7E7E7F7F80808080808180AC
:1014500080808080807F7F7F7F80807F7F807F8093
:10146000807F8080807F7F7F7F7F7F7F7F7F7F7F88
:101470007F7F7F7F7F80807F7F7F7F7F7F7F7F7F7A
:101480007E7E7E7E7D7D7D7D7D7D7E7E7E7E7E7F81
:101490007F7F7F7F7F8080808080808080807F8052
:1014A000808080808080808080807F80807F7F7F40
:1014B0007F7F7F7F7F7F8080807F80808080808033
:1014C0008080808081818181818181808080808015
:1014D0008080808081818181818181818181818100
:1014E00081818181818180808181818080808181F1
:1014F00080808080818080808080808080808080EB
:1015000080808080808080808080808080808080DB
:1015100080808080808080808081818181818181C4
:1015200081818181818181818181818181818181AB
:1015300081818181818181818180808181808080A0
:10154000808080808080808080808080808080809B
:101550007F7F7F7F7F7F7F7F7F7F7F7F7F7F7F7E9C
:101560007E7E7E7E7E7E7E7E7E7E7F7F7F7F7F7F95
:101570007F7F7F7E7E7E7E7F7F7F7F7F7F7F7F7F7F
:101580007F7F7F7F7F7F7F80808080808080808062
:10159000808080808080808080808080808080804B
:1015A000808080808080808080808080808080803B
:1015B000808080808080808080808080808080802B
:1015C000808080808080808080808080808080801B
:1015D0008080807F7F807F7F7F7F7F7F7F7F7F7F17
:1015E0007F7F7F7F7F7F7F7F7F7F7F7F7F7F7F7E0C
:1015F0007F7F7F7F7F7F7F7F7F7F7F7F7F7F7E7EFD
:101600007F7F7E7E7E7E7E7E7E7E7E7E7F7F7F7FF4
:101610007F7E7E7E7E7E7E7E7E7E7E7E7E7E7E7EE9
:101620007E7E7E7E7E7E7E7E7E7E7E7E7E7F7E7ED9
:101630007E7F7F7F7E7E7F7E7E7F7F7E7F7F7F7FC0
:101640007F7F7F7F7F7F7F7F7F7F7F7F7F7F7F7FAA
:101650007F7F7F7F7F7F7F7F7F7F7F7F7F7F7F7F9A
:101660007F7F7F7F7F7F7F7F7F7F7F7F7F7F7F7F8A
:101670007F7F7F7F7F7F7F7F7F7F7F7F7F7F7F7F7A
:101680007F7F7F7F7F7F7F7F7F7F7F7F7F7F7F7F6A
:101690007F7F7F7F7F7F7F7F7F7F7F7F7F7F7F7F5A
:1016A0007F7F7F7F7F7F7F7F7F7F7F7F7F7F7F7F4A
:1016B0007F7F7F7F7F7F7F7F7F7F7F7F7F7F7F7F3A
:1016C0007F7F7F7F7F7F7F7F7F7F7F7F7F7F7F7F2A
:1016D0007F7F7F7F7F7F7F7F7F7F7F7F7F7F7F7F1A
:1016E0007F7F7F7F7F7F7F7F7F7F7F7F7F7F7F7F0A
:1016F0007F7F7F7F7F8080808080808080808080EF
:1017000080808080808080808080808080808080D9
:1017100080808080808080808080808080808080C9
:1017200080808080808080808080808080808080B9
:1017300080808080808080808080808080808080A9
:101740008080808080808080808080808080808099
:101750008080808080808080808080808080808089
:101760008080808080808080808080808080808079
:101770008080808080808080808080808080808069
:101780008080808080808080808080808080808059
:101790008080808080808080808080808080808049
:1017A0008080808080808080808080808080808039
:1017B00080808080808080807F7F7F7F7F7F7F7F31
:1017C0007F7F7F7F7F7F7F7F7F7F7F7F7F7F7F7F29
:1017D0007F7F7F7F7F7F7F7F7F7F7F7F7F7F7F7F19
:1017E0007F7F7F7F7F7F7F7F7F7F7F7F7F7F7F7F09
:1017F0007F7F7F7F7F7F7F7F7F807F7F80807F7FF6
:10180000808080808080807F7F807F7F7F7F7F7FE0
:101810007F7F7F7F7F7F7F7F7F7F7F7F7F7F7F7FD8
:101820007F7F807F7F7F7F7F7F7F7F7F7F7F7F80C6
:101830007F7F807F7F7F7F7F7F7F7F807F7F7F7FB6
:101840007F7F7F7F7F7F7F7F7F7F7F7F7F7F7F7FA8
:10185000807F7F7F7F7F7F7F7F7F7F7F7F7F7F7F97
:101860007F7F7F7F7F7F8080807F7E7F7F7F7F7F86
:101870007F7F7F7F7F7F7F7F7F7F7F807F7E7F7F78
:101880007E7F807F7F7F7F80807F7F807F7F7F8064
:101890007F7F807F7F80807F7F7F7F7F7F7F808053
:1018A00080807F7F7F7F807F807F7F7F7F7F808141
:1018B000817F7F807F7D7F817F7E8182807E7F8030
:1018C00080808081807F7F7F818181817F80818016
:1018D00081817F7E807F7E7E787A82878C8A8583F5
:1018E00083868B857D7E7E7B81827C7D7F828583E6
:1018F0007F7F82817F8486807F818184857E7D82D7
:10190000817F8182807E7E7E7F81807E7B7B7E7FE9
:101910007E7E7E7D7F8286857D7B80808182807DCC
:101920007B7E837F7C83827A7C827E7D82818284BF
:10193000808289817C83847F81817E7F8280828492
:101940007D7981827F81807B7F85838183827F8394
:1019500086817C83878081817D868C807F88868458
:10196000818189857A81877C7E8683828484817F58
:101970008082827E7E847F767D8583807D7D81826C
:101980008080807B7B807D7B7F7D77787F7F747696
:101990008681747D807B81817D84817B8582757D5C
:1019A0008882787A8282858A84848783888E857CFF
:1019B0008088888580777C8B867D82817E84858403
:1019C0008B877B7D878580807E7B82847978848508
:1019D0007F817E757A827E80847E767B7E7E868322
:1019E000726F7685907A6E7D81828D8B7F76788519
:1019F0008E837880827070868A7D7976717782890D
:101A000085756B758689807C78717B8581817C7614
:101A10007D7C777E817C767A8079757A79797D7A1A
:101A200075787E7A788584777F81737D887B7C7FEB
:101A3000747C887E7B817E818681848B868488818C
:101A40007C838581807E7F86827A83887E7B7E7D93
:101A50007C7B7F827B7C7D797D80838677718080B3
:101A60007D827E7A7A757B898477727A83817E81A2
:101A70007D7D85817A7B7B7D858073717D85817A93
:101A80007A7C7E817E818A837A7E828A877B838646
:101A900076828E7B7E8E807D8A828388797E918419
:101AA000727D8C84777E817E807A7B8A83787F8149
:101AB0008285827E7F82807C7F807D82837C7D8523
:101AC000818088837B7F8284827C8083807D777C19
:101AD0008B847981807B86867C7C7B7E86817A7F05
:101AE0008482807C7E88887E7E7F7A7F88847D7EEB
:101AF0008086897D76848B7E7B7F7B828D857E82CE
:101B0000817F81818184847E7D83807F8A877A7FC3
:101B1000858384857E7A85887D7D8284877F797FB1
:101B200083848481817E7D828585807B7B8089889A
:101B30007D7E827E7F84847E7D8283838582818494
:101B400082818482808583797E888582807A7E8383
:101B50007D7E857D7A85888281807E82827E80817D
:101B60007D7E7E7E817D7D86807A83837F85858470
:101B700088837C7F817D7F837F7C7E818281807F63
:101B80008286827E7F8385837E7E7F7D80827F7F4B
:101B900081807F828381808082837D7980837D7E46
:101BA000827F7F837F7F837F7D84837F8585818222
:101BB00081818384827E7E8380808583808282830C
:101BC00086848083848080838282848380808181F4
:101BD00085857D81878181827D80857F7C80817FF5
:101BE0008080818281807F7F84817B7C7D7C7F7F00
:101BF0007C7D7F7C7B7F7F7A7D817C7C807E7A7F11
:101C0000807C7E7E7B80827D7F84808084808082D9
:101C10008080837E7D83848284817F8484828481AA
:101C200082858688857E8187848182828283808086
:101C30008280808383807E80807C7F8079797B78BE
:101C40007979777677787A7E7D7A7C7E7C7B7C7BEF
:101C50007A7A7874777876777776787A7B7D7F7FF3
:101C60007E7F8383817F7D7D7D7E7E7D7E7F808183
:101C700082838687878687898A878585848484810D
:101C8000807F7F8183827F7D7D7E818382817F7F54
:101C900082828182807D7D7D7C7D7C7A7A7A7C7D6A
:101CA0007D7B7A7A7B7C7E7F7E7D7B797C7C79787C
:101CB0007677797977777677787A7C7B7A7B7A7B97
:101CC0007D7B7A7A78797A79797A7B7C7D7D7F825F
:101CD00082818282808284848584818080807F7EEC
:101CE0007F81808283808183808183807F817D7BEF
:101CF0007B7A7B7E7F7C7A7A7A7A7C7C797A7C7D2F
:101D00007D7C7A797775767878797978777778794C
:101D100079797A797A7A787679797979787677773C
:101D2000767779797A7C7C7C80827F7F7F7E8184E4
:101D30008382827F7F8284868887878A8B8A89874D
:101D40008586878583828182828182838383838261
:101D5000828383827F7F7F7D7B79797A7A7B7D7CAA
:101D60007A7A79787B7B797A78767878787A7775E9
:101D70007777757675737575757777777A7C7C7EEE
:101D80007F80848786858685858584848384888A08
:101D90008A8D8E8D8F919394938F8E8E8A8989866A
:101DA0008385858382828081818183848281807E14
:101DB0007D7D7B777677797A7C7C7A7A7C7C7D7D79
:101DC0007A78777372726F6E716F6D6B696A696A18
:101DD0006D6E6E707171737272767A7D8285858A8E
:101DE0009093949696959798979898959798969695
:101DF000999897989593979A9A9C9B979999959368
:101E0000908B8B8A8887848182817F7F7B7A7B7CA1
:101E10007D7C79787773706B6664605B585451533E
:101E2000514F4F4D4C50515256585B5E5E5D5E6156
:101E300064676A6E727C878C909599A0A7A7A7A902
:101E4000ABB1B6B5B3B2B3B5B4B0ACAAACB0B1B186
:101E5000B0B0AFACA8A4A09D9A9592908C8A857ED4
:101E60007A7672726F696668696B6D6B6B6E6F6D97
:101E70006C6661636360605E585755514D4A4647D2
:101E80004848494A4C4E4F5356565B5E5F61656702
:101E9000696D72787F8992989DA0A6B0B6B8BEC1D0
:101EA000C2C7CAC6C3C0BCBAB6B2B0ACA9AAAEAFAC
:101EB000ADABACAAA7A6A199948F8B8A847D7871CB
:101EC0006B69645E5C5C5F64686A6B6A6C6E6E6CA6
:101ED0006A6764656461605C5451504A4A4A474885
:101EE0004C4C4E50505357595C6063646465656553
:101EF00067697078818F9BA0A7AFB4BBC2C5C7CA02
:101F0000CCCFD0CCC6C1BCB7B3AFA9A4A3A6A7A958
:101F1000ABA9A8A7A49E988F878484817E79726DCF
:101F20006A645C5856586065686D70707172716F44
:101F30006D6C6B6A6966625E5A56524D4A484849F2
:101F40004C4E4E4D505455585A5D626365696869F0
:101F5000706F6E798289959A9BA6AEB3BABEBCC2E9
:101F6000CBCDCCCCC9C4C5C1B9B5B0ABABAAA7A6C3
:101F7000A6A5A5A29D96918C8885827F7D7B756E96
:101F800069635E5B59595B5E63696C6C6C6D6D6C0B
:101F90006E6B68696964625E5856524B4A484447A2
:101FA0004C4D4E5154575B5F606265676768676769
:101FB000696B6E778089949DA4ACB5BEC2C5CACD4D
:101FC000D0D5D4CFCBC4BFBCB5ABA6A3A1A1A3A38E
:101FD000A1A2A5A09B958B8887807C7C7874706774
:101FE0005F5A555352535860676B717474767876A4
:101FF00075737072726B68665E5855504A474849EF
:102000004A5056585C6061676864666A67676B68C7
:1020100061656D6F76818692A5ABB3C1C4C9D7D80F
:10202000D3D8D7CECBC3B7B2A99D98948F909394B1
:1020300096999C9F9E9994928E8783807772706800
:102040005E57514D4D4F545D646870787A7E868539
:10205000828687827F786F6A655B55504A494C4A11
:10206000494E53565D63666B7073777977767470FB
:102070006A656362656C737E8B96A1ADB3BAC4C7A3
:10208000C8CFD1D2D3CEC6BFB4A79F978E8A8D8E2C
:102090008E959A9A9C9B979490898786817E7E796B
:1020A000716B645B565555585C62697075787C7EBF
:1020B0007C7C7C7A77777471706D67625D57535161
:1020C0004C4A4C4E5155595A5B5F626567686A6E5F
:1020D000706E6D6D6E73797E838A939CA1A5AAB094
:1020E000B6BCBFBFC1C4C4C0BCB6AFABA8A3A19DA2
:1020F000999B9C9897989492928E898887868584DC
:10210000817E7A756E6B6A66676B6C6D71727072C8
:1021100074727375747476736F6F6B63605C555310
:10212000524F4F4F4D5054525358585A6064696E35
:102130006F7377757272706F767D82899097A0A7A2
:10214000ACAFB1B5BABFC1C0BFBFBEB9B3ABA19C44
:102150009B98949494969A9C99989792908F88873C
:10216000888685857E79766E6967626167696D723A
:10217000717378777577757376787572716E6B6732
:10218000605854504E504E4C4F54555759595A5D03
:1021900062666A6D71757878787877777A7E8287EB
:1021A0008D949DA4A7AAADB0B3B6B6B5B5B5B4B17C
:1021B000ACA7A29D9995929191929494949696949D
:1021C00092908E8D8C8B898684837F7A77737270E0
:1021D0006E6F6F6D6F717173757474747371706FEE
:1021E0006B6B6863615D5854524E4D4D4B4D51536E
:1021F000575B5C6065696E71717377787879797B0C
:102200008084878C9093969A9FA3A8AAACAFB1AF15
:10221000ADACA9A6A4A3A09F9E9B9A9B99989998C0
:10222000989998979795939292908C8A8885827EB8
:102230007A7777777675747372727170706F6E6E6D
:102240006C6B6A68666462605E5E5F5E5C5B5B5A74
:10225000595B5D5E6164636568696B6F7070737311
:1022600074767675787B7D818485898E9296999C2B
:102270009FA3A5A7A9A9A7A7A7A5A3A19E9C9A9735
:102280009695949493949594939291908F8E8E8E2C
:102290008C8A87868583817F7C7977757576777759
:1022A0007676767575757373757574726F6E6E6DFF
:1022B0006A676563616162616466666768696E70BA
:1022C0006F706F6F707070737272737274767476F1
:1022D0007D7F8086898A8D91949798979899989612
:1022E00096969596969492909192919090909193C3
:1022F000929293929292908F8E8E8D8B8B898686FE
:102300008481807E7B7A79787979797A7A7A797919
:102310007A797A7C7B79797671706F6E706E696884
:1023200069696B6D6B6A6A6B6C6C6E6F6F717372DF
:1023300072737272737272727578787A7D7F80832D
:102340008483848A8F8E8F919194939193948E8DB0
:102350008E8C8B8E8E8A8B8C8A8C8E8C8D919191AB
:10236000918F9091908F8E8D8D8D8B8786858181B9
:10237000807D7C7B7B7D7C7A7B7C7D7C7A7B7C7D9D
:102380007E7B7A7C78797A7370716F6F706C6B6B0F
:102390006D6F706F6E707170727574767777797615
:1023A000757979787877787A7A7C7C7D817E7C8182
:1023B00083838583838687888784858788898A89BC
:1023C0008888888A8F908D8C8D8D8E918F8C8F9040
:1023D0008C8D8B888C8E8989888485848486848280
:1023E000828183817D7C7C8282797A7F7C7C7A7514
:1023F000797870707274746F737A747173737477A0
:102400007874737778787771727A75727777757573
:1024100075797D7E7B7579807E80827F7F828384E3
:102420008484878885828485838484818587858662
:10243000878788888C8D8A8A8D8E8E8B8888898BF9
:10244000888787828085838080808486817F81845D
:10245000867E7C83807C7D7A7C7F7A7A7E7B777BAC
:10246000807C77797A787C7D7A7A79797B7B7877CA
:102470007A7B797A7977797A757473747D7F7675DA
:102480007D807E7D7F807E7B7D828381808086874C
:102490007F80878785827F868784868785868787F2
:1024A00085858A87858685868782808181838182EA
:1024B0008885838584858582818184827A7F8883EB
:1024C0007C7A7C7F7C7B7D7B7A7A7E8179787E7B4F
:1024D0007D81797B7E797D7E7A7F7E797D7D7A793B
:1024E0007A7F7D7878777A7F7B76797E80817D7739
:1024F000798280777880817B79828581817E7E85F3
:10250000817C848783827F7C7F84817C83877E7FBC
:102510008681838A817F8A877E82807D84837D8392
:10252000858084888586878280828281838688826E
:102530007B828981787D82807C7B7C81827D7E81AB
:1025400081817F7B7A7F827D7C817D7981847F819F
:102550007F767B857F767B7C79817F737B827A7EB9
:1025600080777C827B7F847B7882847D7B7E7F8288
:102570007F797E83807C7D81807D7E8081847F8069
:1025800086807E84807C7E80827F7D838583817F40
:1025900084847C7F817D83847E82868383827F8125
:1025A000827D7C8385828284837F7E808385807A1E
:1025B0007C807C7E8281817F787C8381807E7C822E
:1025C000847E7D8483807E7D80817A797E7E828117
:1025D0007B7C7F7C7F807C7E817D7E827D7C838115
:1025E0007E7F7A7D8781797E7E7C7F807E808280FF
:1025F0007F7E7E828481807F7F81817E7F7D7F84DC
:10260000807A7C8286837E7D7F82807D81818083CB
:102610007F7E817E80857E7B817E7B7E7D7C8384C8
:102620007B7B837C7A85837B80827B7F837C7C83BE
:102630007E7C837F7D837D7B837F7F837A797F7BB5
:102640007C807F7E7D7E8182807E8085827B80878C
:10265000807A8083807F7D7C83837D8084807D7D84
:102660007C7D8484797B85837F7C7B84857B80846F
:102670007F82837D8085838384817D8084807C7B51
:102680007B8282797B838080847E797F82807C7C60
:1026900081827E7E7E7E807F7E807E7F817C79814E
:1026A000847F7C7F7F797B8481797D827F807E7A45
:1026B00081837D81807A7E807B7C7F7E7C7C82832F
:1026C0007F828180858380858380807D7E83807CFE
:1026D0007F84847E7C7F8383807F818383808186E7
:1026E000827F827D7C8986777B88887F7A7D8384E0
:1026F0007E7D807E7E82837F7C7F817E81857F7BE5
:102700007D7F83807E82807D8081807D7A80827CD7
:102710007C80807D7D7F7F7C7C7D7E7E7C7E817DDC
:102720007E837E7E86847D7C7D7E7E7B7C83837FB4
:102730007E7D81848080827B7C837D7B8480797DAB
:102740007F8388827C8285817F7F808385807E8570
:10275000847C80838084817C838580817D7A83866C
:102760007E7A7F84817F8180818382838584868055
:102770007A848A7F7B8081827F797F85807B7D7C64
:102780007D82837E7A82857C7B807C7E8380808252
:102790007D7E818283807E7E7B7E807A7C8280804B
:1027A0007F78797F7E7D7F7D7D82807C7E82828046
:1027B0007E8184807F85857F7E8284807F817F7E0D
:1027C0008083817D8083818284807F8082817E82FC
:1027D000848083858284827E828280817F7B7E83E7
:1027E00080797D82817E7E8185817F817B7A807EFA
:1027F0007A7D7D7D7C7B7B7E817C7A827E7B857F02
:1028000078827F787E7E7F817B7D817C7F827E7EE9
:102810007E7E82807C7F7F7C8184808185807E84B7
:10282000817D83837C7E8181817F7F8184817D80A6
:1028300084807D7F807E7E82827E81817C7E7F78A7
:102840007C847D7983847F82827C7F817A7B817D99
:10285000787D81807E7E7C7D81807E807D7B7F7F98
:102860007B7E7D7B807F797E807A80837E85827887
:1028700082867A7D7E7982827D81807D7F7E7F7D6A
:102880007C837F7C857F78888C7E797E868B827541
:102890007B87807A81817D827E787F86837C7B8145
:1028A000838181808584797D817D82837E807D7A2C
:1028B00082827B7D8284817B797E807D7B7E7D7E32
:1028C000828180807E82827D80807E8181807F780F
:1028D0007C878276778186817B787C85807E848008
:1028E0007F827B7F857D7C807E85847A7B7E8083F2
:1028F0007C798288837A7F8B857D807F7F7D757EE2
:102900008A7E727B86858081858280837C778184C4
:102910007F817E7D89837682887B79807F7A7E85C0
:102920007D7B85807C857F7B857F7981817C7D7FB8
:1029300080807E7A7B857F747D8381827B7D867FAC
:102940007C7F797D8883797C8684797D83827E759E
:102950007A8C86757C8682808480788289807E7C71
:102960007581897C7981828180818282827B7F8A64
:10297000837C7E7D82867D777C878D7F737E898553
:102980007B7A82857F7A7D83827C7D7D7F84817C5A
:102990007D82887D71818D827C7C7B81847B787E49
:1029A000817D7C797B8782747F887F7D7F82877C35
:1029B0007782817F847C7985817982857B7E837B28
:1029C000818A7C7C8B837D8580797F808287807AF9
:1029D00082847F7F8183837C7C85827A80828283EC
:1029E0007D80887F7B83857F797C8A88787D8782DC
:1029F0007D7D7F7F7B7F837B75818B80757B8485ED
:102A0000807E82838081837E787D88877A798183C6
:102A1000818282807D7F8284857E7B82817B7E80B5
:102A200080817F80827C7E88857B7E8483817B7CA5
:102A30008786777B89817881867F7F807C8181789A
:102A40008185737A8E8076818182877B7B8D867586
:102A50007F887B7C8A837B82817D7F7E80847E7A77
:102A60007E82837C7E8A8173828C837E7C7C868856
:102A70007E7C7B788286787782828381767E8B7D6E
:102A80007988837B867F71828D7A78847F80837654
:102A90007B8B7E76827D798886777B868780797E40
:102AA0008A83757A84847E787E877D7886877D8127
:102AB0007D7984827A8483788487787C857E7B782C
:102AC00076808475758489817B7D86898180817C0F
:102AD0007F877F767A80858477788581797F7F7E0E
:102AE00083807C83817C807F7F827C7E857E7A81EF
:102AF00084837E7B84847A828A807C8081807C80CF
:102B00008880777C8283807A7B82817879847D7AE1
:102B100087807786867B82827A7E827F7F7C7C7DBF
:102B200082867D7680847D7E7D79838678788383B6
:102B30007F7E7E808181827B7982837C797B87879F
:102B4000767A89837E82807C81877F787D81838489
:102B50007A7883847D7C8088877F7C7A80867A7788
:102B60008584777881807E7F7C7E857B7986827E76
:102B7000857E7A847E7C847E7C827E797F817F7F65
:102B8000797A87877B7B7D808884787A8386827B4D
:102B90007A81847F7B7D81817D7B7C7C7D81837B51
:102BA0007D8984798087847F797781867C78848623
:102BB0007D7E7E7B84867F7F7E7E7E7C82827B8222
:102BC000847E817F7A81847C7F837A7C848081810A
:102BD0007C80847E7D83807C7C7B81897E747B830A
:102BE0008485807A7E827E7F827E7F837C747D88EE
:102BF000857C7E837D7D817F807F797D86807581E8
:102C00008D7D748184848179808A817C817E7E83BC
:102C1000807F7F7C7F817B80857B7B868181887EB6
:102C20007A827C7D857D7982807A7D807F818180BA
:102C30008183807B7F8383857E767F8683807F7E92
:102C4000817D7983847C80827D81827B7A7E7F8591
:102C5000877A7A878682807E8280787C84837C767D
:102C60007881867F737D8B807A817D82877A7F876A
:102C70007A82907B6F7D838583787D867B7A8B8556
:102C8000777F89827D797C877F7781827C7B808654
:102C900083808688837C7F8484837D7A7F7C7B8429
:102CA000807A84837D807B7A8A8777797E7C83862D
:102CB0007D7D817F808386817A808181857D7D860F
:102CC000807E827D818A857A797B82847C7C828306
:102CD000807F84817D84837980867C797C838B84EA
:102CE0007379857F7E837E7E817C80867F80857EF2
:102CF000808880787B7D787C837A78827D7B8687EC
:102D0000817E7D8084807D8083867E7881837F89BB
:102D100086787E888076798289877A7784847A85B6
:102D20009080787D7D83867F7F8080827F7D817E9D
:102D30007D827F80847D797F7B7983847E81807AA8
:102D40007F8483868480827D76777E837F7C7A7899
:102D50007D82808187857B7A7F8286827A7E85806C
:102D60007F84817D807D7B8280797C83848280806A
:102D70008386837B7E88837A79787E85817B7A7D62
:102D80007D7D817C7780857C7C868687887D808937
:102D90007E7A7F7B787A7A7B7F84837F8083807F53
:102DA000818185877E7784887D80857C7F837A7921
:102DB00082817C7D7C7C8385808184817C7E828015
:102DC00082827679807B7D857F798282797F827825
:102DD000808B7D7989877C8080767C837D80867AF4
:102DE000747E818387847A7580897D7F89838180E1
:102DF0007884907A718988767C827D81837D8488CD
:102E0000777888867C7A7F847F7A7B7E82827D7FDA
:102E1000827F7C7F8280807F7B797C7C7C7F8182CB
:102E20007D787E807F85827A7C8283807D7B8084B2
:102E30007F7F817B7A82808085817C7D7D80858695
:102E4000807B7F807A7D838282807B7C84867E8586
:102E50008D7C7584877F807D7A82877E7C7F7D8074
:102E60008179818A827E7E7B7F807E82807E81796D
:102E7000727F88827B7C7C7D7F7E80837C7B888167
:102E80007580877E7D7E7F85837C7C8186877F7849
:102E90007C8282807E81837978837F7F8C877C7F30
:102EA0008183857F7F817E7C7F8486807D80817D1C
:102EB0007C82827D7F7C7C847C7380847F84807A2A
:102EC00081807D87857B7974768683777D827C801F
:102ED00084818588817D7C7B7E85857A78807F7BF7
:102EE0007F7C7B7E7D7C7D7C7F8486837C80837DF4
:102EF0007F827D7B7B80857E7B837D7785887D80DF
:102F0000827D83817A858A7D80878180847F7C7AB7
:102F1000797E7F777785897F818680858A7E7D83AC
:102F20007F81857C7B858783807D797A8185837DA0
:102F3000797C7D7F8582808A84767E847B7B817D9F
:102F40007D7E7A7D837B7A857F7782837B7F838397
:102F5000868078818B817A807D7879777B84817F88
:102F6000858784828181818385827E7A777E828053
:102F7000817E77777A7E817A7B86857F848680845E
:102F8000857F80817D7D7D797B807D787D827B7969
:102F9000827F767A7C7F86827C81848486837E7F32
:102FA00080818381808683757989887F80807C7A1F
:102FB0007B848B827C86887F7C7D7D81837C797A13
:102FC0007A80847D7A7C7E81837D7B817E787D7D25
:102FD000787E807D80807B7D7E7E848480818280FF
:102FE000818180807E7A7B7C7C7E818181838381EC
:102FF00082847F7E85837D7F817E7F828282807DC9
:1030000080807D7D8082817F7F807F818687807EBA
:1030100085837B7F847C797C797C807C82857B7DC9
:1030200088817E87817A82807B7F7F7D807D7677B5
:103030007D81807E8187858183878784807E7F7E76
:103040007C7D7D7C7D807E7E7F7F7F818282818290
:1030500086847E80837D7B7D7D7E7E7B7D8080827D
:10306000828082828284837E7D7D7B7C807F7A7871
:103070007B7C7D7E7F7F807E7F817F818482828159
:103080007E7E7E7F81807E807F7B7E7F7D7E7F7D5A
:103090007D7E80828384868584858685817F81800C
:1030A0007D7F7F7F84858385858485838282808000
:1030B000807E7E7F7E80808082807C7D7E7D7C7D28
:1030C0007E7D7C7D80807F7F7F7E7D7D7E7E7C7D22
:1030D0007F7E7E81817D7C7F807D7A7B7E807D7E10
:1030E00084837F83848080807D7D81807C7D7F7FE1
:1030F00080807E7F807E7E81817F7F7F7F828381D3
:103100008182817F7E7C7B7C7D7C7D807F7F7F80D8
:103110008284807F7E7B7A7B797A7C7D7E808185CC
:10312000878481818382807E7E7F7E7E8081808194
:10313000818181807E7F7F7E808282828381818285
:10314000818183827F808181818080817F7D7E7F7C
:103150007F7F80807F80838382828281817F7D7C6C
:103160007D7C7B7B7C7D7E7E7E8081828181807F79
:103170007F7E7E7D7D7C7C7D7C7C7D7B7C7C7B7D85
:10318000808081838280807F7F80807F7E7D7D7D47
:103190007F807F7E80807F7F7F7F7E7D7D7E807F42
:1031A0008082818081818080818080808080817F19
:1031B0007E7F808282807F828383838484838485F0
:1031C00083848582828483828484838382818182D2
:1031D00083838285878583838283838182828080C3
:1031E00081807F8181807E7D7E7E7E7D7C7D7E7EF6
:1031F0007E7F7F7F7F7D7D7C7B7C7C7C7C7D7D7CFE
:103200007C7C7A797A7B797879797A7B7D7F7E7F0D
:103210007E7C7B7A7978787775777979797978781F
:1032200078787879797A7A7B7B7D7E7D7D7D7B7AF3
:103230007A78787A7C7F8284878A8A8A8B8A89885E
:10324000868585878B8D90939597999B9B9996946E
:10325000949595959697989A999896959593919017
:10326000908D8C8F9090908F8D8A8784827F7B79D0
:103270007876767776757573706D6966625F5F6074
:103280006062656667676664626161615F5F606016
:103290006061615F61615F5E5E5E5E61636467691C
:1032A0006A6C6B696B6C6C6E717276797979787710
:1032B00077787C838C96A1A9AFB4B6B7B6B0A7A037
:1032C0009C9B9C9D9FA2A5ACB1B4B5B4B5B7B6B557
:1032D000B4B2B3B5B5B5B3B1ACA59F9B96918F9081
:1032E000929292949697948D86807A736D686561B8
:1032F0005F5F5F5D5B59585755534F4E50504E4E70
:103300004D4C4D4C4A4A4A4B4D4F505255595E63B5
:1033100065656563615F5E5E606264666A6D6F715C
:103320007171717171727476787A808384878787FE
:103330008986817D7673777E8B9EAEBBC5CACBC9ED
:10334000C3B9ADA29C9998989A9DA2A8B0B4B3B302
:10335000B4B5B5B6B3B0B2B6B8B7B6B3AEA79E976C
:10336000918C8C8F909397999B9B978F877F776F8A
:103370006863605E5F605F5D5B5A595756534F4E9E
:103380004D4E4F4F4E4C4A4848464546484B4F538A
:10339000585D62666A6C6C6B686562626365676AD9
:1033A0006C6E72757776767675747678797B7D80BB
:1033B000848585868583807B757171767F8FA2B2C7
:1033C000BDC4C5C4BFB5A99D93908F9194989BA08F
:1033D000A5ABAFB1B0AEAEB2B4B4B4B5B7B9B9B7CE
:1033E000B3ACA49C9490909194989EA2A3A4A29C08
:1033F00093897F78736F6A6565696A6967625C59EA
:1034000056534F4C4A4A4A4C4E4D4A4644413E3F21
:103410004144494F54595D6163646363615F5D5E1C
:103420006165696F73757778767474747373747784
:103430007B7E8182838586868586858382807D7A70
:103440007A7F8A98A6B1B9BCBEBDB6ADA59D979648
:10345000989A9A9C9E9EA1A5A5A4A6A6A8ABADB03D
:10346000B0AFB4B7B6B5B0A79F9893909093979B21
:103470009FA3A4A09A948B827A74716E6D6B6C6D0D
:103480006D6B68635F5B55504E4C49494C4D4D4DDB
:103490004C4946444344484D52575D6165676665F3
:1034A000635F5E5F6061656A71797E80817F7C7B2E
:1034B0007A787675777A7D7E7D7C7E7F7E7E808150
:1034C00083848482807E7D7F848C97A1A8ACAFADFD
:1034D000ABA7A09A96939497979797999C9E9F9F36
:1034E0009FA0A4A6A8A8A9ADB0B1B4B2ADAAA49D4E
:1034F00098959496989BA1A5A7A7A49C938A827A55
:10350000746F6C6C6F717171706E69635D57534F3E
:103510004D4D4D4D4E50514E4B4845444545484EFE
:10352000565D63696E6F6E6D6A66625F5E60646948
:1035300070777D8284848484827F7D7D7E7F7F7F9F
:10354000807F8080808081828382817F7B7A7B7E86
:10355000848F9BA7B0B6B6B2ADA69D948D8888899E
:103560008B8F9194999EA1A3A3A3A3A3A3A4A5A782
:10357000A8A9ACACA9A49F9B96919095999FA4A64D
:10358000A6A8A59C92887F766E6A6A68696D727635
:1035900077746F6B6660595351505052545555545F
:1035A000524F4A4644464B51585F666C6F6F6C6889
:1035B000635E5C5B5B5D636971777B7F8181807E2D
:1035C0007B7979797B7D7E8080807F7D7C7C7B7D33
:1035D00081838486847F7D7E81878E969FA7AEB20D
:1035E000B0AAA29B95908D8B8A8C909497999C9F62
:1035F000A0A1A2A3A4A5A6A8A9AAADAFADA9A49E67
:103600009998969495999FA5A8A8A59F99938A8023
:1036100078726F6F70727475767674716D696460AC
:103620005D5A5758585655545251504D4B4C4E5167
:10363000575C6064676867635F5C5957595B5D629C
:10364000686D717577797A7A7A7A7A7A7C7D7D7EFF
:103650007E7E7C797677797C81858B8F8F8E89844D
:103660008282848C959FA9AFB0AEA79F98928D8BD4
:103670008A8C909598999A9C9D9C9B9A98999B9DD1
:10368000A0A5AAACADACA7A097908E8D8E939BA25F
:10369000A7AAA8A19A938B837F7C7C7E7F8183815C
:1036A000807E7B76716C696966646565646463605D
:1036B0005C58555352515457595B5D5E5C5C5D5A82
:1036C000585858575A5D61666B6E71716E6D6B68B4
:1036D00066676B70767C8085878784807C7A787754
:1036E00077797D81868C8F8E8D8A847F7A777A82B6
:1036F0008D9BA5AEB2B2ACA1958A807B7C7F858C78
:1037000092979B9B9894908D8C8C8C8F949BA0A56A
:10371000A9A8A49E968F8986878B919BA3A7A9A70A
:10372000A29A918B87838487898C9091908D8984CC
:103730007E797673716F707274757574716D69636B
:103740005E5C5B5C5E616569696764605C59565686
:1037500057585C626667696B6A6A6A69686A6B6D0A
:10376000717376797B7D7E7D7C7B7A7A7C7E8082AC
:1037700085878887878684838384848485868484F8
:103780008382828485888B8E91949492908D8A878F
:1037900083817F7E7E7E808181838484848484850E
:1037A0008687898C8E8F90908F8C8A898A8A8B8D60
:1037B00090919494949392929293949594949493D8
:1037C00091908E8C8B8A8A8A8A898A8A898888864F
:1037D0008382817F7E7E7C7B7A7977767371706E4F
:1037E0006D6E6F6F71727374757574726F6C6A68D9
:1037F0006868696B6E7173757778797A7B7B7B7B90
:103800007B7B7A7A797878767676767778787A7C30
:103810007E8082838281807D7B78767574757576F3
:103820007878797A7B7B7C7C7D7E7E7E7E7D7C7BDE
:103830007876747371706F70727577797C7D7F8024
:10384000818283848485868686858584848585882F
:103850008A8C8D8F90909191919192929394939262
:1038600091908F8F8E8E8E8D8F9090919393939257
:10387000918F8D8B888685848485868685848484D3
:10388000838281818182838484838382807E7D7B25
:103890007A7A7A7B7C7D7E8080807F7F7D7C7B7B5B
:1038A0007B7C7D7D7E7E7D7D7C7A78777676767773
:1038B00077787979797978777574727170707071B9
:1038C000727273727271706F6E6E6E6E6E6E6E6EFD
:1038D0006F6F6F6F6F6F6F707071717273747575DA
:1038E0007676767575747575767778797A7C7D7F5E
:1038F000818283848586868788898A8C8D8E8E8F47
:103900008F8F909091919192929393939495959695
:103910009696959493929191919090919191909087
:10392000908F8F8F8F8E8D8D8C8B8B8A89898989D3
:103930008887888787868585858585848483838332
:103940008383828180807F7E7D7C7C7C7B7B7C7B93
:103950007B7A797877767574747474747475757409
:103960007372716F6E6E6D6C6C6D6D6E6F6E6E6E70
:103970006D6D6C6B6B6B6B6B6B6C6C6C6B6B6C6C8D
:103980006C6C6D6E6F6F7071717171717272727338
:1039900074747576777879797A7B7B7C7D7D7E7F90
:1039A0008081818283848586878888898A8B8B8CB5
:1039B0008E8F9092939494959595959696979898C6
:1039C000989898989797979798989898989898987B
:1039D000979796959594939291908F8E8E8D8D8DCD
:1039E0008D8C8C8B8B8A8A89878685848281818065
:1039F0007F7F7E7E7E7E7D7D7C7B7B7A797878770B
:103A00007676757574747372717171707070707090
:103A100070706F6E6E6E6E6E6D6D6D6D6D6D6D6DC9
:103A20006D6D6D6D6C6D6D6C6C6C6B6C6D6C6C6CD0
:103A30006B6C6C6B6B6B6B6C6C6C6C6C6D6E6E6EC4
:103A40006F70727373747677787878797A7B7B7C11
:103A50007C7E7F8081828384868788888A8B8D8E16
:103A60008F909193939393949495969798999B9C08
:103A70009D9D9D9E9E9E9E9D9D9D9D9D9C9B9B9B79
:103A80009B9A9998989797969595949494939190DA
:103A90008E8D8C8A898887878685848483828282BA
:103AA0008181807F7E7E7D7D7C7B7A79787776755B
:103AB00075757575757574757575747474747473BE
:103AC000727170706F6F6F6F7070707070707070F7
:103AD00070706F6E6D6C6C6B6A6A69696969686831
:103AE0006868686867676767676766666667676765
:103AF0006767686969696B6C6E70717374767778E3
:103B000078797A7B7C7C7D7D7F81828485878A8BB6
:103B10008D8D8F9091939495969697989999999A5F
:103B20009C9D9E9F9FA0A1A2A3A3A3A3A3A3A2A188
:103B3000A09F9F9E9E9C9C9B9A99989797969695DE
:103B400095949392908F8D8C8B89888786858584B8
:103B5000838282828281807F7E7E7D7C7C7C7B7A78
:103B60007978777675747474747574757574747403
:103B70007474747373727170706F6F6F6F6F6F6F37
:103B80006E6E6F6F6F6F6F6F6F6E6D6C6A69696865
:103B900067676666666666666666666565656564C9
:103BA00063626263636363646465666666686A6BC6
:103BB0006E6F7173757677797A7A7B7C7E7F7F8181
:103BC000838487898B8D8F909294959596989A9BF4
:103BD0009B9B9C9D9E9E9E9FA0A1A3A4A4A5A6A7DF
:103BE000A8A7A7A8A7A7A5A4A3A2A1A09F9E9E9DA2
:103BF0009C9B9B9998989796959492918F8D8C8A7F
:103C000088878685848382828181807F7F7E7E7E95
:103C10007D7C7B7B7A797878777675747373727232
:103C200073727373737372717171706F6F6F6F6E84
:103C30006E6D6D6D6E6E6D6D6D6D6E6D6C6C6D6DB2
:103C40006D6C6B6A6A6968676666666666656464F9
:103C5000656464636363636261616161626263633B
:103C600064656566666768696C6E7072757678798A
:103C70007B7C7D7E7F8081828486888A8D8F9193F4
:103C800094959798999A9B9C9D9E9FA0A0A0A1A275
:103C9000A3A4A5A6A7A8A9A9AAAAAAAAAAA9A8A7A7
:103CA000A6A5A4A3A2A1A1A19F9E9C9B9A99989727
:103CB00096959493918E8C8B898887858584828153
:103CC00081807F7F7E7E7D7C7C7B7A797978787835
:103CD00077767574737372717172727272727271B7
:103CE000717070706F6F6E6E6E6D6D6D6D6D6E6EEE
:103CF0006E6E6D6D6D6D6C6C6C6B6B6A6968686710
:103D0000666666656565646463636363616161617A
:103D100061605E5F5F5F6062626263646565656685
:103D200068696B6D6F72747476797A7C7D7E7F8042
:103D300082848687888B8E919294959698999A9C86
:103D40009C9EA0A2A2A2A2A3A4A5A5A6A7A8A9AA38
:103D5000ABABACACACABABABAAA9A7A6A5A5A4A4D6
:103D6000A2A1A09F9F9C9A9A9897979694939190BE
:103D70008E8C89898886858483828281807F7E7EFD
:103D80007E7D7C7A7A7979797878777675757472B0
:103D90007271717271717171717170706F6F6F6F1B
:103DA0006E6D6D6D6D6D6C6C6C6C6D6C6C6B6B6B4E
:103DB0006C6B6B6A6A6A6968676666656565646389
:103DC00063636362626161626161616060606060DF
:103DD000606061626363636465666768696B6D6F89
:103DE00071737477797B7C7D7E7F81828384868802
:103DF0008A8D8F9193959799999A9C9D9F9FA0A149
:103E0000A2A2A3A3A4A4A5A6A7A8A9AAABACACAB45
:103E1000ABACACABA9A8A7A6A6A5A4A2A1A1A09F44
:103E20009D9C9B9B9A989795949391908E8C8B894F
:103E300088868584848382818180807E7D7C7C7C71
:103E40007A7A797978787776757474737372727216
:103E5000727273727272717171706F6F6E6E6E6D5D
:103E60006D6D6D6D6D6D6C6C6C6C6C6C6B6B6A6993
:103E70006968676766656464636262616161606006
:103E8000605F5F5F5F5F5F5F5F5F5E5E5F5F5F5F43
:103E90005F60626364656567696A6B6C6E71737598
:103EA00076787A7C7D7F808183848687898B8D90EC
:103EB00091949698999B9B9D9EA0A1A2A3A4A5A531
:103EC000A6A6A7A7A8A9A9AAABABACACACACACAC56
:103ED000ACABA9A9A8A7A7A6A4A4A3A1A09E9C9B9C
:103EE0009B9A989795959492908F8D8C8B898786C5
:103EF0008483838180807F7E7E7C7B7A7A797978E7
:103F0000787878787675747474737372727272726A
:103F10007271717373727271717170706F6F6F6F94
:103F20006F6E6E6E6D6D6D6D6D6D6D6D6C6B6A6AC5
:103F30006968676766666564636362626161606041
:103F400060605F5F5E5E5F5F5F5F5F5F605F5F5F80
:103F5000606162646464656768696A6B6D707274DD
:103F60007577797C7D7F808284858687898B8D8F2C
:103F700090939597999A9B9C9EA0A2A2A3A4A5A773
:103F8000A7A6A6A7A8A9AAA9A9AAAAABACACACAC9B
:103F9000ACACABAAA8A7A7A6A5A4A3A2A09F9D9CD2
:103FA0009B99989795949392908E8D8B8B8987850A
:103FB00084838281807F7E7D7D7C7C7B797979782A
:103FC00078787777777676757474737373737373A1
:103FD00072727272737373727272727271717170C3
:103FE0007070706F6E6E6E6E6E6E6E6E6E6D6D6CEE
:103FF0006B6A6A696867676766656564636362615F
:10400000616160605F5F5F5F6060606060606060B2
:1040100060606061626464646667686A6A6B6D6E42
:1040200070737576777A7D7F808183858687888AAD
:104030008B8D8F91939597999A9B9D9EA0A1A2A3FA
:10404000A5A6A6A7A7A7A8A8A9A9A9A9AAAAABABEC
:10405000ABABACABACABAAA8A8A7A7A6A5A3A2A1E3
:104060009F9E9C9A99979696949291908E8D8B8A0A
:10407000888785848381807F7E7D7C7C7B7A79784C
:1040800077777777777777777675757372727372DC
:104090007271717272727272727273727271717104
:1040A000717170707070706E6E6E6E6E6D6D6D6E23
:1040B0006E6D6D6C6C6C6A69686767676665646471
:1040C0006565646362626262605F606060606060D8
:1040D0006161626161616364656565676869696A98
:1040E0006A6C6D6E6F707275787A7C7E818385865E
:1040F0008788898B8C8D8D8F91949697989B9D9FA7
:104100009FA0A2A4A5A7A7A7A8A8A8A8A8A8A8A94F
:10411000AAAAA9AAABABACACABABABAAA9A8A6A602
:10412000A5A4A3A2A09F9D9B9998969594939290E5
:104130008F8D8C8A898786858382807F7E7D7C7C3B
:104140007B7A7979787877767676767676767574FE
:104150007473727272717172717171717172727342
:10416000737271727171716F6F706F6F6F6E6E6E4F
:104170006E6E6E6E6E6E6E6E6D6D6C6B6B6A696977
:1041800068676666656565656565646464636262E3
:1041900062626261616162626364646465666667EB
:1041A0006768696A6B6B6C6D6E6F6F70727376782F
:1041B0007B7D7F8184868789898A8B8C8C8D8E908C
:1041C000929496989A9C9E9FA0A2A3A4A6A6A6A706
:1041D000A7A7A8A7A7A8A8A9A9A9A9AAAAABABAB52
:1041E000AAAAAAA9A7A5A4A3A2A1A19F9E9D9B9AA2
:1041F00099979695949291908E8C8A8987868483DC
:1042000081807E7D7D7C7C7B7A7A79797877767601
:104210007576757474737373727170707070706F7B
:104220006F70707070707070706F6F6E6E6E6E6E9B
:104230006D6D6D6D6D6C6D6C6C6D6D6D6D6D6C6CB3
:104240006C6B6A69696867666565656565656565FE
:104250006566656464646463636262636363646423
:10426000646667676868696B6B6B6D6E6F707171A0
:10427000727374747576787B7D7F828487898B8C6A
:104280008D8E8F8F8F8F9092949597999B9E9FA0E4
:10429000A0A1A3A5A6A6A6A8A9A9A8A7A7A8A8A8BB
:1042A000A7A7A8A8A9A9A9AAABABAAA9A7A6A5A48C
:1042B000A2A09F9F9E9C9A98979695939291908F7B
:1042C0008E8C8A898887858281807F7D7C7A7A7AC4
:1042D0007A79787777767676757575757574737380
:1042E0007270706F6F6F6F6E6F6F6E6F7070706FD8
:1042F0006F706F6E6E6E6D6D6D6D6D6C6B6B6C6CEB
:104300006B6B6C6C6D6D6D6C6C6C6B6A6A696867FD
:104310006665656565656565656666666565656549
:10432000656564646464656566666768696A6A6B26
:104330006C6C6D6E6F70717273747475757677785E
:104340007A7C7F818385888A8B8D8E8F8F8F8F90EB
:104350009192939598999C9E9E9FA0A1A2A3A4A59B
:10436000A6A7A8A8A8A8A8A8A8A7A7A7A7A8A8A8D4
:10437000A9AAABABA9A8A7A6A5A3A2A0A09F9E9CF3
:104380009A9897959493918F8F8E8C8A8988878637
:10439000848281807E7C7B7A79797978777676766B
:1043A00075747474757574737373717171706F6FE4
:1043B0006F6F6E6E6E6F6F6F707070706F6F6F6E0D
:1043C0006E6E6E6E6D6D6D6C6C6C6C6C6C6C6C6D21
:1043D0006D6D6D6C6C6C6B6A696868676666656547
:1043E0006666666565666666656566666565656575
:1043F000656666676767696A6A6A6B6C6D6E6F6F20
:1044000070717273747475767778797B7D7F82832F
:104410008587898B8C8D8D8E8F8F909192949597B7
:10442000999B9C9D9E9FA0A1A2A3A5A5A6A7A7A777
:10443000A7A7A7A7A7A7A7A7A7A8A8A9A9A9A9A900
:10444000A8A6A5A4A3A2A1A09F9E9C9A9896959386
:104450009291908F8D8C8B898887868483817F7ED3
:104460007D7C7B7A7A7979787777757576757575CD
:10447000757575737372717070706F6F6E6E6F6F2C
:104480006E6F707070706F706F6E6F6F6E6E6E6E3D
:104490006D6D6C6C6C6C6C6C6C6D6D6D6D6D6D6D53
:1044A0006D6C6B6A6968686767676666676766668A
:1044B000676767676767676667676767676768698A
:1044C000696A6A6B6C6D6D6E6E6F70717172737408
:1044D0007575767778797A7C7D8082848687898BFA
:1044E0008C8D8D8D8D8F909191939497999A9B9CA3
:1044F0009E9FA0A1A2A3A4A5A5A6A6A6A6A6A6A681
:10450000A7A7A7A7A7A8A9A9AAA9A8A8A7A6A5A336
:10451000A2A1A19F9E9D9B99979695939291908E13
:104520008D8B8A898785848382807E7D7D7B7B7B62
:104530007A79787777767574747575757474747321
:1045400072727170706F6F6F6F6E6F6F6F6F6F7071
:1045500070706F6F6F6F6F6F6F6F6E6E6E6E6D6D71
:104560006D6D6D6D6D6D6D6D6E6E6D6D6D6D6C6B7C
:104570006A6A6969686867676868686767676868BA
:104580006868686868686868686868696A6B6B6C9E
:104590006C6D6D6E6F6F6F70727374747475767707
:1045A0007878797B7D7F81828486888A8A8B8C8CDF
:1045B0008D8D8E8E9091929495989A9B9B9C9D9FA9
:1045C000A1A1A2A3A4A5A5A5A5A5A5A6A6A6A5A5A6
:1045D000A6A7A8A8A8A9A9A8A8A6A5A5A3A2A1A07E
:1045E0009F9E9D9B99979696949290908F8E8C8A81
:1045F000898887868482807F7E7D7C7B7B7A7978C0
:104600007877767675757575747474737272717067
:104610006F6F6E6E6D6D6D6D6D6D6E6E6E6E6E6EBE
:104620006E6E6E6E6E6E6D6D6D6D6C6C6C6C6C6CBA
:104630006D6C6C6D6D6D6D6D6D6D6D6C6C6B6A69B7
:1046400069696968686869686869696969696969DF
:1046500069696968686969696A6A6B6C6D6E6E6FB1
:104660007071727273747476767677787879797AF5
:104670007B7D7F81838487898A8B8C8D8E8E8E8EC5
:104680008F909192939596999A9B9C9C9E9FA1A2A4
:10469000A2A3A4A5A5A5A4A5A5A5A4A4A5A5A6A5D2
:1046A000A6A6A7A7A7A6A5A4A3A3A2A09E9E9E9CDC
:1046B0009A9896959492918F8E8D8C8B8A89888604
:1046C00085848281807F7D7C7B7B7A7A7877767621
:1046D0007574747474747474747473727271706FAA
:1046E0006F6E6E6E6E6E6E6E6E6F6F6F6F6F6F70E1
:1046F000707070707070706F6F6E6D6D6D6D6D6ECF
:104700006E6E6E6E6F6E6E6E6E6E6D6C6C6B6B6AD7
:104710006A6969696969696969696A6A6A6A6A6A02
:104720006969696A6A6A6A6B6C6C6C6D6E6F6F70CE
:1047300071717273747575767777777878797B7B1A
:104740007D8082838587888A8B8B8C8C8C8D8F8FE4
:10475000909193959797989A9B9C9D9E9FA0A2A3BA
:10476000A4A4A4A5A5A5A5A4A5A5A5A5A5A5A6A6FB
:10477000A7A7A6A6A5A5A4A3A1A1A09F9E9C9B991F
:104780009795949291908F8D8C8B8989888785835A
:104790008281807F7D7C7B7B7A7978777676757471
:1047A000747373747473737373727170706F6F6EEC
:1047B0006E6D6D6E6E6E6D6E6F6F6F6E6E6F707014
:1047C0007070707070706F6E6E6E6E6E6D6D6E6EFE
:1047D0006E6E6E6E6E6E6E6E6D6D6D6C6B6B6A6A0C
:1047E0006A696969696969696969696A6A6A6A6A33
:1047F0006A6B6B6A6B6B6C6C6D6D6E6E6F707171EA
:104800007272747575767677787878797B7C7D7F2F
:104810008183848687888A8B8B8C8C8D8E8F9091F8
:104820009293959698999A9B9C9D9FA0A1A2A3A4D0
:10483000A4A4A4A4A4A4A5A5A5A5A5A5A6A6A6A729
:10484000A7A6A5A5A4A4A3A1A1A09F9E9C9A989663
:10485000949392918F8E8D8C8B8A898886858483A0
:1048600082807F7E7D7C7B7A7978777675747474AC
:104870007373747474747372727171706F6E6E6E20
:104880006D6D6D6D6D6D6E6E6E6E6F6F6F6F707046
:104890007070706F6F6F6E6E6D6D6D6D6D6D6D6D37
:1048A0006D6E6D6E6E6E6E6D6D6D6D6C6C6B6A6A3D
:1048B0006A6A696969696A6A6A6A6A6B6B6B6B6B57
:1048C0006C6C6C6D6D6E6E6E6F6F707071717273FB
:1048D00074757676777878797A7A7A7C7D7E80823C
:1048E00083858688898A8B8C8C8D8E8E8F90919211
:1048F00094959697989A9A9B9C9E9FA1A2A2A3A3F7
:10490000A4A4A4A4A4A4A4A4A4A4A4A5A5A5A5A562
:10491000A5A4A4A3A2A1A1A09F9E9C9B99979593B7
:1049200092908F8E8C8B8A898887868583838281FB
:104930007F7E7D7C7B7B7A787776757474737272F8
:1049400073737373727272717171706F6F6E6E6E5A
:104950006D6D6E6D6D6E6E6E6E6E6E6F6F70707073
:10496000707070706F6E6E6E6E6E6E6E6D6D6E6E60
:104970006E6E6E6E6E6E6E6D6D6D6D6C6C6C6B6B67
:104980006B6B6B6A6B6B6B6B6B6B6C6C6C6C6C6D71
:104990006D6D6D6E6F6F6F70707071727273747514
:1049A000767677777879797A7A7B7D7E8081838550
:1049B0008688898A8B8B8C8C8D8D8E8F9192939427
:1049C00095969798999A9C9D9E9FA0A1A2A2A2A21B
:1049D000A3A3A3A3A2A2A3A3A3A2A3A3A3A3A3A2AB
:1049E000A2A1A1A09F9E9E9D9C9A98969493918F20
:1049F0008E8D8C8B898887868584838281807F7D5C
:104A00007D7C7B7A7978777574737372717171714B
:104A100071717171706F6F6F6E6E6E6E6E6D6D6DA8
:104A20006D6D6D6D6D6E6E6E6E6F6F6F70707070A0
:104A3000706F6F6F6E6E6E6E6E6E6E6E6E6E6D6D93
:104A40006D6C6C6C6C6C6C6C6B6B6C6C6C6B6B6CA9
:104A50006C6C6B6C6C6C6D6D6D6D6D6E6E6E6D6E89
:104A60006E6F6F6F70707172727374757576777820
:104A700079797A7A7B7C7D7E7E8081838486878843
:104A80008A8B8C8D8E8E8F90909192939495969721
:104A900098999A9B9C9D9EA0A1A2A3A3A4A5A5A51D
:104AA000A6A6A5A5A5A5A5A4A4A4A4A3A2A2A1A1C8
:104AB000A09F9F9E9D9C9B999896959392908F8D79
:104AC0008C8A8987868584838281807F7E7D7C7BBA
:104AD0007B7A787776757473737272717171707096
:104AE00070706F6F6F6F6F6F6F6F6F707070706FD0
:104AF0006F707070707070707070707070706F6FB9
:104B00006F6F6F6F6F6F6F6F6F6F6E6E6E6D6D6DBE
:104B10006D6C6C6D6D6D6C6C6C6D6D6C6C6C6C6CCF
:104B20006C6C6C6C6D6D6C6D6D6D6D6E6E6E6E6FB4
:104B30007071717172737374747576767778787931
:104B4000797A7B7B7C7D7F80828385868788898A52
:104B50008B8B8C8D8D8D8E8F90919293959697984F
:104B6000999A9C9D9FA0A1A1A2A3A4A4A4A4A5A539
:104B7000A5A5A4A4A3A3A3A3A2A2A2A2A1A1A0A00D
:104B80009F9E9D9C9B999796959392918F8E8D8BCE
:104B90008A89878684838281807F7F7E7D7C7B7A01
:104BA0007A78777675757473737272717171706FCC
:104BB0006F6F6F6F6F6F6F6F7070707070707070FD
:104BC000707070707070706F6F6F6F6F6E6E6E6EF2
:104BD0006E6E6E6E6E6F6E6E6E6E6E6E6D6C6C6CFB
:104BE0006C6C6B6B6B6B6C6B6B6B6B6C6C6C6C6C0D
:104BF0006D6D6D6D6D6E6E6F6E6E6E6F70717070CF
:104C0000717273747475757778797878797A7B7B3B
:104C10007B7C7E7F808183858688888A8B8C8C8C48
:104C20008D8E8E8F90919192939596969698999B52
:104C30009C9D9EA0A1A2A2A2A3A3A4A4A4A3A3A35B
:104C4000A3A2A2A2A1A1A09F9F9F9E9E9D9C9C9B70
:104C50009A98979695949291908E8D8C8B89878552
:104C60008483817F7E7E7E7C7B7B7A797877767584
:104C7000747473727171717070706F6F6F6E6D6C30
:104C80006D6D6E6E6D6D6E6E6F6E6E6E6F70707040
:104C9000707171727271706F70706F6E6E6F6F6F16
:104CA0006F70707070707070707071707070707004
:104CB000706F6F6E6F6F6E6D6E6F706F6E6F706F07
:104CC0006E6F706F6E6E70706F6E6F70706F6E6EF5
:104CD0006F7171727273757877757474767777798E
:104CE0007C81868A8E91929497999593969A9A98B8
:104CF000979A9D9D9B9A99999B9C9B9C9EA3A7ACE0
:104D0000AEACAEB1B1AFADABABABA8A7A6A4A2A100
:104D10009E9B97959493918F8F9191908F8F8E8B6F
:104D2000888685827F7E7C7B797774716F6D6A68F7
:104D30006766656667686768696A696A6B6C6C6DE7
:104D40006E6F7070717372717070706F6E6E6F7164
:104D5000747475787A7A7C7E7E8081828383838383
:104D6000828181807D7C7B787777757576757676A4
:104D7000767677757473727171706E6D6C6B6A692B
:104D8000676463636362605F60605E5F6060605F12
:104D900060616162636263656666666667696B6EC1
:104DA0006E6D7076787674777D8181858D959A9F0A
:104DB000A5A9ACAEB3B6B6B5B5BABFBEB9BABFBE9B
:104DC000B9B6B4B1B1B0AFAFB1B4B9BCBABBBCB98C
:104DD000B7B8B8B3B1B2B4B2AEA8A5A39D958F8948
:104DE00084827E7C7B7978787774716E6C6D6A676B
:104DF000686B6C6A69696865625F5D5A595A5B5A8B
:104E00005B5E5F606163646566696C6E7074797B1C
:104E10007E8183848382818180808080828383827B
:104E2000807F7F7D7B7A79797C7D7D7E80818281A8
:104E30007E7C7D7B7977757372706D696563605C6C
:104E400057555452515253535556575858575A5C08
:104E50005C5C5D5F62625D5D61605B595C5E5C5A7B
:104E60005E6366676A6D717677797D7F7F838789F8
:104E70008D949DA5A9AEB8BDBABBC5C8C2C3CDD1DE
:104E8000CDCBCDCEC7BDBCBFB7ADADB2B0ACAFB270
:104E9000B1B0B3B4B3AFAEB2B5B0AEB1B0ABA8A51C
:104EA000A19A928E8A817A7875706D6B6764626060
:104EB0005E5B595B5D5C5D606162666764656766E9
:104EC000646363636565666868686A6C6C6D70715D
:104ED0007376777A7F8283888C8D8D8D8E8E8E8D82
:104EE0008D8D8D8B8B8B87848483807E7D7B7A7B7D
:104EF0007A797A787777767270706F6D6A6766679D
:104F0000635D5A5A5753504E4E4E4D4C4D4D4D4E7B
:104F10004E4E4E505153565756595B5B5B5C5C5D31
:104F20005E60606062676B6C6E73777A7D7F808293
:104F3000868988888F9AA0A3ABB5BBBCC0C5C6C6FE
:104F4000C9CED2D2D4D6D6D2CFCBC5C0BCB8B3B0DE
:104F5000AFAEABAAABABA9A7A5A4A4A4A5A4A2A4D9
:104F6000A5A29E9D9C9A928B89857D7977706A69AE
:104F700065615D5956565453535354575A5A5F649A
:104F800066676B6E6E6E7173727376797877787A06
:104F90007979797A797A7D7E7D7F858887888C8F0B
:104FA0008F8E8F90919192918F8F8F8C8885837F38
:104FB0007C7A777371706F6C696866656463616031
:104FC0006363605D5E605F5B585959575555555531
:104FD00054535150504E4E4F4F4E505455545253BF
:104FE000585B5A5A5D62676A6A6B6F747A7D7C7E21
:104FF000858989888A8D8F8F939DA3A6ADB7BCBD07
:10500000BFC4C8C8C8CCD1D3D4D6D5D1CDCDC9C1E1
:10501000BAB9B7B1AEAFACA6A4A7A7A09B9B9E9E02
:105020009C9C9C9A9B9F9B949495908A86807C7A6A
:1050300077726B6563635C5352524E4D504F4E51C5
:10504000565A5D6164686C6E7174777A7E80818473
:1050500085848383818081807D7C7E7F7F7F7E804D
:105060008282828283878988898D9091908F908FA8
:105070008A8887827E7C797777746F6D6A66635DD4
:105080005A5B5A5858595958595A58575859585795
:10509000575959595B5B5856585A56525357595697
:1050A00055575A5B5A5C5E5F626668696C727678C7
:1050B0007B7F8486878A8C898A91969597A1ADB3E8
:1050C000B4B6BBC1C3C4C5C6CAD1D6D4D2D3D4CF5B
:1050D000C9C5C0BAB6B4B1ACA7A6A7A59E9A9A98FE
:1050E000949393939496979695959593908D8A869D
:1050F000817F7E7972706F69635F5C57534F4D4D4E
:105100004D4D4F52555A5E6063686C6E72767B806F
:1051100084878B8C8B8C8E8D8A8888888784838308
:10512000828182827F7E7F7F7F7F80828586898C5D
:105130008C8B8B8B8B88858382807E7B7876736F5C
:105140006B655F5E5C5854535352535251515253E6
:1051500054535456595A5B5D5D5D5E5E5D5C5C5DAB
:105160005D5C5C5C5C5C5B5A5D5F5E5F6264666854
:105170006A6F76797C8083878C8D8E90939499A0CA
:10518000A7ABAFB6BCC0BFC0C3C7C8C9CDD0D2D211
:10519000D2D0CCC7C4C0BAB4B2B0ADA8A4A4A29EA9
:1051A0009A989592919090909191909091908D8BEA
:1051B0008987837F7E7D7974716E69645F5A5753E6
:1051C000504D4C4B4B4D4E5053565A5F62656A7072
:1051D000757B7F82878C8F8F90909191908E8C8B36
:1051E0008A8A88858383807E7D7D7B7B7D7E8081AE
:1051F0008487898A8B8C8D8D8C8C8C8B898785821A
:105200007F7B76716C67635F5B585553504D4C4C98
:105210004B4A4A4B4C4E4F5255585C606363646531
:1052200067676867686A6A696A6865666764616112
:1052300064676767696D6F707376777B8084878A30
:105240008E949BA2A9AEB4B9C0C4C5C8CCD0D3D5E6
:10525000D8D9D8D7D5D0CAC6C3BEB9B3AFACA8A326
:105260009F9A9692908D8A898A8B8C8D8C8B8B8C51
:105270008D8C8A898A888482807C7774706C67615F
:105280005D5955504D4B4A4948494B4D5053575A1B
:105290005D63696C727A7F858A8C909393959797FA
:1052A0009898969594938F8D8A888683807E7C7B50
:1052B0007B7B7B7B7C7C7D7E7E7E7F808181808012
:1052C00080807F7D7B797774706C696764605C5ADD
:1052D000575451504F4D4A4A4C4D4E4F50525558CD
:1052E000595A5C5F6264656768696A69696A6A6A73
:1052F0006A6B6C6E6F70727374777A7C7D7F80835B
:1053000086888A90979FA6ABB0B6BBC0C3C5C8CCF1
:10531000D0D4D7D9D9D9D8D6D0CAC5C1BEB9B2ADE3
:10532000A9A5A09A95918D8A888786878685858587
:1053300085878887878887858482807E7A7674705F
:105340006B68635E5B5652504F4D4D4D4E505254FC
:10535000575A5F64696D73797F858A8E9295989CA0
:105360009E9D9D9D9C9B9A969493908C8885837F0F
:105370007B787775747475777776777979797979B9
:105380007B7C7C7D7D7D7C7A7774726F6D6B6864CD
:10539000615E5B5653514E4C4C4B4B4B4B4C4E4EFF
:1053A0004F5254575B5C5F636465696A6A6C6D6DEC
:1053B0006E6E6E6F707174767576787A7C7B7B7E9C
:1053C000818183878B92989EA6ACB0B5BBC0C5C7C0
:1053D000CACFD6DBDBDADCDDD8D4D0CBC5C0BBB6D8
:1053E000AFA8A4A09A948F898582807E7C7C7D7DE5
:1053F0007C7D7E7F81828382828282807D7C7B79BC
:1054000075726F6A65605C5955514F4F4E4E4E50E4
:105410005356585C60636A70757C83899095999E39
:10542000A2A3A6A8A8A7A5A3A29F9C9995928E889F
:10543000827D7A76737070706F6F6F70707071723A
:10544000737476797A7B7C7C7C7B79767472706EEF
:105450006A6663605B56534F4C4A49474646474825
:1054600049494C4E5054585A5F6264676A6D6F7078
:10547000717474747678797A7B7C7C7D7E7E7E7F95
:1054800080818284878C9299A0A7ACB1B7BCC0C43C
:10549000C8CCD1D7DBDDDEDDDCD9D4CFC9C4BEB901
:1054A000B2ABA5A19B948E89837E7B797676767547
:1054B000767677797C7D7F807F807F7E7F7E7A792C
:1054C0007876736F6B67635E5B58535151505152DE
:1054D0005355585B5F62666C727980868C93989D99
:1054E000A2A6A8AAADADABA9A8A5A3A09C97928D92
:1054F00087817B7673706C6A696868686767696AB8
:105500006B6D6E6F73767779797979797775737159
:10551000706C6764615C5854504D4C4A494746472B
:1055200049494A4B4D5154575A5E6265696C6D6FDB
:105530007275757677797D7E7E7F808183828082A9
:105540008382838486898E949CA2A7ACB1B6BABEAE
:10555000C4C7CBD2D7DADCDCDBD8D5D2CEC6C0BC50
:10556000B7B0A9A49E96918E867E7C79757473716E
:10557000717173757576797B7A7B7C7D7C7D7C7AA5
:1055800079797773706D6A66615E5B5754545554D0
:105590005456595C5F61656A6F767C838A91979CEB
:1055A000A1A6AAADAEAFAFAEADABA8A4A19D989198
:1055B0008A847D78726E6A666462605E5F5F5F6037
:1055C0006264676A6D707275787979797A7A7876BB
:1055D00074716E6B66615C5955514D4A4948474636
:1055E0004646474A4C4D5055595D6264676C70722F
:1055F0007374777B7B7B7E818182838383848484C5
:1056000084848485878A90969CA3AAAEB3B9BFC2CE
:10561000C5CAD1D7DBDCDFE1E0DED9D2CEC9C2BA60
:10562000B2ABA59E979089827D78736F6D6C6C6C20
:105630006B6C6D6F727577797B7D7F7F7D7D7D7BF8
:1056400079787672706C6864605B5854515151502F
:105650005154575A5E62666C72787E858D93999F1D
:10566000A4A9ADAFB1B1B0AFADAAA9A59F9C9790C9
:105670008B847C78726C69656160605E5E5E5E6082
:10568000636466696C6F7274757778797978787607
:1056900074716F6A66625E5A575451504E4D4E4D4A
:1056A0004D4E4E4F5254575B5E62686D6F72757708
:1056B0007A7B7B7C7E8082828181838383828180EE
:1056C0008182818082878D959CA2A8AFB6BCBEC224
:1056D000C8CDD1D9DDDDE0E1DFDDD8D1CCC5BEB7A5
:1056E000B0A7A09B938C867F7974716E6C6A6A6A8E
:1056F0006B6B6C6E707376787A7B7C7D7B79797856
:10570000757573706E6B67635F5B5855525252527A
:105710005557585E62646A70747A82888F959AA130
:10572000A7AAAEB1B2B2B3B0ADAAA7A39F9A958E05
:1057300088827C76706B6763605E5B5B5A5B5C5DE6
:105740005F616366696C6E70737577787878787668
:1057500075716D6A67615E5B57555351504F4E4F7F
:105760004F4E4F515355595D60656A6D7073767930
:105770007A7C7E80828385858586878685858382FF
:10578000817F7E7E82898F959CA5ACB2B8BCC0C556
:10579000CBD1D5DAE0E3E4E3E1DDD8D1CBC4BBB3D0
:1057A000ACA49C958E87807A75706C6B6A6867660E
:1057B00067696A6C6F72767A7C7D7E7E7C7B797895
:1057C000777573716D6A66615C595653514F5152CA
:1057D00052565A5C61676C71787F858C92999FA450
:1057E000A9AEB1B2B5B4B1B0ADA8A49F9A958F8956
:1057F000837D76716C66625F5D5A59595A5B5E6053
:105800006365686C6E707375777A7B7B7B7A7B7867
:1058100072706D6763615A565553504F4D4D4F4EE0
:105820004E505052575B5D63686B707476787B7E28
:10583000808081838484848483828383807F7E7C50
:105840007A7A7B7D8289939BA1A9B1B8BEC3C9CD69
:10585000D1DAE1E2E4E7E6E4E1DBD3CBC3BCB3A811
:105860009E978F86817A716D6B68646362626365EF
:1058700067696C71767A7D8083838383807D7D7A8E
:105880007673716D69635F5B5753504E4C4D4F504B
:1058900052575C62686E747B838B93999EA4AAAF07
:1058A000B2B4B6B6B6B5B2ADA8A39D979089837DC4
:1058B00077716C66615E5B595958595B5E616467CC
:1058C0006A6E717477797B7D7F80807F7D7A777354
:1058D0006F6A65605B5753504E4D4C4C4D4E4F5068
:1058E0005254585B5E64696D7176787B7D7F8080F1
:1058F000808182817F7E7D7B7B7B797676767575F4
:10590000747579808890979FAAB4BBC2C8CED5DC45
:10591000E2E5E7EAEBEAE7E2DBD5CDC4BBB1A79E5F
:10592000948B837C746F6B66646362626364666885
:105930006B7075787C81838586868482807D7A769B
:10594000716C67635E5954504E4C4948494B4E52F6
:10595000575C626A7279818A9199A1A6ABB0B3B69D
:10596000B8B8B7B6B3B0ACA49E989089827B746F78
:105970006965615D5B5A58585A5C5E6265696E7212
:1059800075777B7E7F81828281817F7C78746F6B6B
:1059900065605B56524F4D4A4A4A4B4D4F515356E4
:1059A0005A5E62666B7075797C7E7F818282817FB0
:1059B0007E7E7D7C7A77757473716F6D6D6E6F719D
:1059C0007378808A939BA5AEB8C2CAD0D5DCE4E8D0
:1059D000EAECEDEBE9E6E0D7CFC7BEB4A99E958B24
:1059E000837C746D6865636262626466686B6E7105
:1059F00075797D81848686878683807D79746F6AD8
:105A0000645E5954504C4A484747484A4D51575C88
:105A1000636B737B848D969EA6ACB1B5B8B9B9B8EB
:105A2000B6B4B0ABA59F99928B847D77726D686593
:105A300062616161616264676B6E7175787B7E80A3
:105A4000818180807F7D7975716D69645E59565260
:105A50004F4C4A48494B4D4F5256595E6165696CEF
:105A60007075797C7F81828382807F7D7A78757280
:105A7000716E6C6B6B6B6B6A6A6A6C6E6F71757C46
:105A8000858F98A1ABB5C0C9CFD5DBE1E6E8E9E9E0
:105A9000E7E5E2DCD6CFC8C0B8AFA59C928A827990
:105AA000726D6A6868696B6D707377797B7D7F81D1
:105AB000838586868685827F7B77726C66605A5482
:105AC0004F4B4744434445484C51565C636A70779A
:105AD0007D848B92999FA5ABAFB2B4B3B3B1ADA99E
